:020000040000FA
:100000000C9437020C945F020C945F020C945F0214
:100010000C945F020C945F020C945F020C945F02DC
:100020000C945F020C945F020C945F020C945F02CC
:100030000C945F020C945F020C945F020C945F02BC
:100040000C9466230C945F020C94D6230C94B0237A
:100050000C945F020C945F020C945F020C945F029C
:100060000C9408240C945F0200407A10F35A00A00C
:10007000724E18090010A5D4E80000E87648170071
:1000800000E40B54020000CA9A3B000000E1F505B1
:10009000000080969800000040420F000000A086FB
:1000A00001000000102700000000E803000000002D
:1000B0006400000000000A000000000001000000D1
:1000C00000002C76D888DC674F0823DFC1DFAE59EB
:1000D000E1B1B796E5E3E453C63AE651997696E87E
:1000E000E6C28426EB898C9B62ED407C6FFCEFBC02
:1000F0009C9F40F2BAA56FA5F490055A2AF75C932D
:100100006B6CF9676DC11BFCE0E40D47FEF520E662
:10011000B500D0ED902E0300943577050080841E45
:10012000080000204E0A000000C80C333333330FA0
:10013000986E12831141EF8D2114893BE65516CF3D
:10014000FEE6DB18D1844B381BF77C1D901DA4BB49
:10015000E424203284725E228100C9F124ECA1E5FE
:100160003D275D2000626C6E6B696E66006D637585
:1001700000302E302E300066772D74797065005473
:100180004D504C3275564C41573779350062756980
:100190006C640041756720313820323032342031B0
:1001A000383A34373A343700626C796E6B00312E4E
:1001B000332E3200682D626561740034350062753B
:1001C00066662D696E0032353600646576004172D0
:1001D0006475696E6F20556E6F00637075004154D1
:1001E0006D6567613332385000636F6E005735318B
:1001F0003030000000436F6E6E656374696E672077
:10020000746F2000436F6E6E656374696E6720744F
:100210006F20000D0A202020205F5F5F20205F5F9D
:10022000202020202020202020205F5F0D0A202079
:10023000202F205F20292F202F5F205F5F5F5F5FCF
:1002400020202F202F5F5F0D0A20202F205F2020ED
:100250002F202F202F2F202F205F205C2F202027C2
:100260005F2F0D0A202F5F5F5F5F2F5F2F5C5F2C7A
:10027000202F5F2F2F5F2F5F2F5C5F5C0D0A2020E8
:100280002020202020202F5F5F5F2F2076312E330B
:100290002E32206F6E2041726475696E6F20556E2C
:1002A0006F0D0A0D0A20235374616E6457697468D8
:1002B000556B7261696E65202020206874747073BC
:1002C0003A2F2F6269742E6C792F737775610D0A3E
:1002D0000D0A0049503A0044484350204661696C79
:1002E0006564210047657474696E672049502E2E3D
:1002F0002E0000000000240027002A00000000005B
:10030000250028002B006D73292E00526561647949
:10031000202870696E673A20000000000023002644
:10032000002900040404040404040402020202027A
:1003300002030303030303010204081020408001A9
:100340000204081020010204081020000000080028
:10035000020100000304070000000000000000622A
:10036000026202620262026202620262026202626D
:10037000026202620262026202620262026202625D
:10038000026202620262026202620262026202624D
:10039000026202620262026202620262026202FAA5
:1003A0000B6102D40BB20B8A0B6102610261026124
:1003B0000261026102610261026102610261026125
:1003C0000261026102610261026102610261026115
:1003D000026102610261026102610261026102491D
:1003E0006E76616C696420485720636D643A200022
:1003F0005365727665723A2000526564697265636E
:1004000074696E6720746F200052656164790050D2
:1004100061636B657420746F6F206269673A2000B6
:10042000436F6E6E656374206661696C65642E202F
:10043000636F64653A2000496E76616C696420617F
:1004400075746820746F6B656E004C6F67696E2001
:1004500074696D656F757400486561727462656179
:10046000742074696D656F757400C925BC2F1124E3
:100470001FBECFEFD8E0DEBFCDBF12E0A0E0B1E0FD
:10048000E2E8F0E702C005900D92AE37B107D9F768
:1004900025E0AEE7B2E001C01D92A33CB207E1F750
:1004A00012E0C6E3D2E004C02197FE010E94353776
:1004B000C533D107C9F70E946A270C9434380C94CD
:1004C0000000089508958CBD9DBD089520E3FC01B2
:1004D00020833296862F82958F706F706A3030F449
:1004E000605D6293682F8111F5CF0895695CF9CF43
:1004F000FC01818D928D0895833081F028F4813044
:1005000099F08230A9F008958730A9F08830C9F0B9
:100510008430B1F4809180008F7D03C08091800091
:100520008F7780938000089584B58F7784BD089578
:1005300084B58F7DFBCF8091B0008F778093B00022
:1005400008958091B0008F7DF9CF1F93CF93DF93F3
:10055000282F30E0F901E55BFC4F8491F901E95C5B
:10056000FC4FD491F901ED5DFC4FC491CC23A9F06F
:10057000162F81110E947C02EC2FF0E0EE0FFF1F7E
:10058000E450FD4FA591B4918FB7F894EC911111FF
:1005900008C0D095DE23DC938FBFDF91CF911F91F0
:1005A0000895DE2BF8CFCF93DF9390E0FC01E95C58
:1005B000FC4F24918D5D9C4FFC0184918823C9F0F0
:1005C00090E0880F991FFC01EE50FD4FA591B4916A
:1005D000FC01E450FD4FC591D49161110DC09FB74E
:1005E000F8948C91209582238C93888128232883EA
:1005F0009FBFDF91CF910895623051F49FB7F89477
:100600003C91822F809583238C93E8812E2BEFCF12
:100610008FB7F894EC912E2B2C938FBFEACF1F93BA
:10062000CF93DF93182FEB0161E00E94D302209754
:1006300039F460E0812FDF91CF911F910C94A502D6
:10064000CF3FD10511F461E0F5CFE12FF0E0E55B9C
:10065000FC4FE491E33031F140F4E130B1F0E230AD
:10066000E1F0C038D1057CF7E4CFE73029F1E8307C
:1006700059F1E430B1F7809180008062809380006E
:10068000D0938B00C0938A0004C084B5806884BD79
:10069000C7BDDF91CF911F91089584B5806284BD5D
:1006A000C8BDF7CF80918000806880938000D09390
:1006B0008900C0938800EDCF8091B000806880935E
:1006C000B000C093B300E5CF8091B000806280930A
:1006D000B000C093B400DDCF8E3008F08E5087702C
:1006E000806480937C0080917A00806480937A009B
:1006F00080917A0086FDFCCF8091780090917900FE
:1007000008953FB7F8948091B0039091B103A09100
:10071000B203B091B30326B5A89B05C02F3F19F0D3
:100720000196A11DB11D3FBFBA2FA92F982F882771
:10073000BC01CD01620F711D811D911D42E0660F4C
:10074000771F881F991F4A95D1F708958F929F921E
:10075000AF92BF92CF92DF92EF92FF926B017C013A
:100760000E9481034B015C01C114D104E104F10436
:10077000B9F00E948103681979098A099B09683ECA
:1007800073408105910580F321E0C21AD108E10888
:10079000F10888EE880E83E0981EA11CB11CE4CFFE
:1007A000FF90EF90DF90CF90BF90AF909F908F9091
:1007B00008952FB7F8946091AC037091AD038091C8
:1007C000AE039091AF032FBF089508950895089543
:1007D0004F925F926F927F92AF92BF92CF92DF92D1
:1007E000EF92FF920F931F93CF93DF93EC016B0176
:1007F0007B01E40EF51E8B015801AC18BD080E15E7
:100800001F0511F10E94D903688779878A879B8722
:10081000E881F9810284F385E02DCE01099597FFE7
:1008200023C00E94D903488459846A847B84641954
:100830007509860997094C805D806E807F806415FC
:1008400075058605970520F3C501DF91CF911F91AE
:100850000F91FF90EF90DF90CF90BF90AF907F907F
:100860006F905F904F900895F80181938F01C4CFEE
:10087000DC01ED91FC910190F081E02D0994AF92A3
:10088000BF92CF92DF92EF92FF920F931F93CF937D
:10089000DF936C017B018B01040F151FEB015E01DF
:1008A000AE18BF08C017D10759F06991D601ED9174
:1008B000FC910190F081E02DC6010995892B79F713
:1008C000C501DF91CF911F910F91FF90EF90DF90C5
:1008D000CF90BF90AF900895FC01538D448D252F8C
:1008E00030E0842F90E0821B930B541710F0CF96CA
:1008F000089501970895FC01918D828D981761F0FC
:10090000A28DAE0FBF2FB11D5D968C91928D9F5F12
:100910009F73928F90E008958FEF9FEF0895FC01F1
:10092000918D828D981731F0828DE80FF11D858DA4
:1009300090E008958FEF9FEF0895FC01918D228D37
:10094000892F90E0805C9F4F821B91098F739927BC
:10095000089581ED93E00E949D0421E0892B09F424
:1009600020E0822F089580E090E0892B29F00E94FA
:10097000A90481110C9400000895FC01A48DA80F16
:10098000B92FB11DA35ABF4F2C91848D90E00196D1
:100990008F739927848FA689B7892C93A089B189F1
:1009A0008C91837080648C93938D848D981306C092
:1009B0000288F389E02D80818F7D80830895EF92F6
:1009C000FF920F931F93CF93DF93EC0181E0888F09
:1009D0009B8D8C8D98131AC0E889F989808185FFD9
:1009E00015C09FB7F894EE89FF896083E889F9897B
:1009F00080818370806480839FBF81E090E0DF917D
:100A0000CF911F910F91FF90EF900895F62E0B8DCF
:100A100010E00F5F1F4F0F731127E02E8C8D8E118A
:100A20000CC00FB607FCFACFE889F989808185FFF1
:100A3000F5CFCE010E94BD04F1CFEB8DEC0FFD2F61
:100A4000F11DE35AFF4FF0829FB7F8940B8FEA89AC
:100A5000FB8980818062CFCF0F931F93CF93DF9369
:100A60008C01D0E0C0E0F801EC0FFD1F649166231B
:100A700041F081ED93E00E94DF04892B11F0219673
:100A8000F2CFCE01DF91CF911F910F910895682F82
:100A900081ED93E00C94DF04CF93DF93EC01888D1C
:100AA0008823B9F0AA89BB89E889F9898C9185FDE9
:100AB00003C0808186FD0DC00FB607FCF7CF8C9177
:100AC00085FFF2CF808185FFEDCFCE010E94BD046E
:100AD000E9CFDF91CF9108952091BF02260F3327F0
:100AE000331F21323105ECF420910803FC0190E022
:100AF00080E0243069F082E00895A091BF02219146
:100B0000AC0141565D4FA40FB52FB11D2C9301963A
:100B1000861798F38091BF02680F6093BF0280E050
:100B2000089581E008951092080381E080930703FF
:100B30001092E20261E082E10E94A50261E083E19D
:100B40000E94A502E9EBF0E080818E7F80838081A6
:100B50008D7F808388E48093B80085E48093BC0017
:100B60000895CF93DF9391E090939E028823B9F08C
:100B7000C091B800D091BA008091BC008A7B80936C
:100B8000BC0060E082E10E94A50260E083E10E9477
:100B9000A5020E949305D093BA00C093B800DF91DC
:100BA000CF910895E091A5038091A403E81730F454
:100BB000F0E0E258FD4F808190E008958FEF9FEFC5
:100BC00008959091A5038091A4032FEF3FEF98170C
:100BD00048F4E92FF0E0E258FD4F208130E09F5FBC
:100BE0009093A503C90108958091A4039091A50352
:100BF000891B990B0895CF92DF92EF92FF920F938A
:100C00001F93CF93DF937C01CB018A0120910E03C8
:100C1000222389F0EB016B01C40ED51ECC15DD0536
:100C200069F06991D701ED91FC910190F081E02D7F
:100C3000C7010995F3CF642F0E946C05C801DF91AD
:100C4000CF911F910F91FF90EF90DF90CF9008957B
:100C5000CF93DF931F92CDB7DEB7698320910E0348
:100C60002223F9F02091A203203258F021E030E055
:100C7000FC013383228390E080E00F90DF91CF91DD
:100C800008958091A303E82FF0E0E15FFC4F998184
:100C900090838F5F8093A3038093A20381E090E011
:100CA000ECCF61E0CE0101960E946C05F7CFCF92A8
:100CB000DF92EF92FF920F931F93CF93DF93FC018C
:100CC000C48121E020930E03C0932F031092A3034D
:100CD0001092A2038385682B8EE694E00E9428067A
:100CE000D091A203D13208F092C00E9481036B011F
:100CF0007C0180910803811165C082E08093080324
:100D000081E0809307038FEF809306031092050321
:100D1000D0930403AFE0B3E0E4EEF2E080E0D81358
:100D200085C01092E3028091E302CC0FC82BC093E0
:100D3000E3028091E202813009F07CC01092E2026D
:100D40000E9481036B017C018091E3028093BB00D0
:100D500080910A0390910B03A0910C03B0910D03B5
:100D6000892B8A2B8B2B99F00E94810300910A0317
:100D700010910B0320910C0330910D036C197D0928
:100D80008E099F090617170728073907E0F1809198
:100D9000BC0083FDD9CF85EC8093BC000E94810309
:100DA0006B017C0180910803823009F445C0809179
:100DB00006038F3F61F180910603803241F18091FB
:100DC000060325C080910A0390910B03A0910C03A8
:100DD000B0910D03892B8A2B8B2B09F48ACF0E94AB
:100DE000810300910A0310910B0320910C033091B1
:100DF0000D036C197D098E099F090617170728072F
:100E0000390708F076CF809109030E94B10510924E
:100E1000A3031092A20310920E03DF91CF911F91B2
:100E20000F91FF90EF90DF90CF9008959D91919357
:100E30008F5F75CF85EEB0CF80910A0390910B0341
:100E4000A0910C03B0910D03892B8A2B8B2B09F4F5
:100E5000A9CF0E94810300910A0310910B032091F6
:100E60000C0330910D036C197D098E099F0906173B
:100E700017072807390708F095CFC5CFFC01208157
:100E80002EBD9B012150310941F051810DB407FE67
:100E9000FDCF4EB55EBD4193F5CF61507109860F10
:100EA000971F0DB407FEFDCF2EB5FC0120830895DA
:100EB000E0913103F0913203808190913003892BCE
:100EC00080830895E0913103F09132039081809105
:100ED000300380958923808308958EBD00000DB472
:100EE00007FEFDCF8EB50895AF92BF92CF92DF92ED
:100EF000EF92FF920F931F93CF93DF93CDB7DEB79F
:100F000028970FB6F894DEBF0FBECDBF8C017B01D2
:100F10006A018091D0038333E1F45801A40EB51E19
:100F2000A016B10609F46FC00E94620780EF0E940C
:100F30006D07812F0E946D07802F0E946D070F5F44
:100F40001F4FF70181917F010E946D070E94580792
:100F5000E7CF5B01A40EB51E8433C1F40E94620783
:100F600019830A838D2D80688B83CC8264E070E0C6
:100F7000CE0101960E943E07AE14BF0409F441C0A1
:100F8000F70181917F010E946D07F6CF0E946207F1
:100F90000F3F110509F028F419820A8384E08B833E
:100FA0000CC017FD17C019820A8333E01695079508
:100FB0003A95E1F7007E0C600B8386E0C816D104F9
:100FC000A0F5F701DE011496EA15FB0599F0819171
:100FD0008D93FACFC80126E0969587952A95E1F77B
:100FE000807E19830A830115104C10F48461D7CFD9
:100FF0008C61D5CFB6016D5F7F4FCE0101960E9407
:101000003E070E945807C60128960FB6F894DEBF27
:101010000FBECDBFDF91CF911F910F91FF90EF9049
:10102000DF90CF90BF90AF90089563E070E0CE0165
:1010300001960E943E07F70181917F010E946D0792
:10104000AE14BF04C1F7DDCFCF93DF931F92CDB7AE
:10105000DEB7898341E050E0BE016F5F7F4F90E0D3
:1010600080E00E9474070F90DF91CF91089590E087
:101070002091D003233339F40C96982F990F990FB0
:10108000990F80E008954896F8CFDA01E091340393
:10109000F0E0FE2FEE27E60FF71F90E0982F88274D
:1010A000A901BD018E0F9F1F0C947407CF93DF938E
:1010B00000D0CDB7DEB779836A8322E030E0AE019D
:1010C0004F5F5F4F60E170E00E9445080F900F9006
:1010D000DF91CF910895CF93DF9300D0CDB7DEB7E6
:1010E00079836A8322E030E0AE014F5F5F4F64E0B6
:1010F00070E00E9445080F900F90DF91CF91089506
:10110000CF93DF931F92CDB7DEB72091340330E049
:10111000322F2227260F371F90E0982F88274983E8
:1011200041E050E0BE016F5F7F4F820F931F0E942E
:1011300074070F90DF91CF910895CF93DF931F92A3
:10114000CDB7DEB76983DC01ED91FC910280F381BC
:10115000E02D41E050E0BE016F5F7F4F09950F9099
:10116000DF91CF910895FC019485FB01848598134C
:1011700003C081E0943008F080E00895CF93DF93BE
:101180001F92CDB7DEB76983DC01ED91FC9102803F
:10119000F381E02D41E050E0BE016F5F7F4F099584
:1011A0000F90DF91CF9108950895FF920F931F93B1
:1011B000CF93DF93EB01FC01178A168A2A81211154
:1011C00009C02B81211106C02C81211103C02D8162
:1011D000222301F141155105E9F08A01FC01F08C4F
:1011E00080E591E00E946302AE014E5F5F4F24E014
:1011F00030E06CE070E08F2D0E944508B8018F2D23
:101200000E94560881E090E0DF91CF911F910F91ED
:10121000FF90089580E0F7CFFC01848595850895BF
:10122000FC018489958908952AEA31E0FC01318323
:101230002083FB014089518962897389FC014283C3
:101240005383648375830895DC01ED91FC91048CD4
:10125000F58DE02D099490E080E008958EE00E94E5
:101260006C03BC01990F880B990B0E94853420E018
:1012700030E040EA50E40E94E43420E030E040E80E
:101280005AE30E94E4342AE037ED43E25CE30E9433
:101290003C36089590E080E00E94470590E080E0B1
:1012A0000C94470590E080E00E94470581E090E0C3
:1012B0000C944705FC019485992369F08081918104
:1012C000DC01ED91FC910688F789E02D099591E00C
:1012D000811101C090E0892F0895DC011C961C92B9
:1012E0001C978D919C91009739F0DC01ED91FC9158
:1012F0000488F589E02D09940895FC0176876587B7
:101300000895DC01ED91FC9102A0F3A1E02D099577
:1013100091E089270895862F089581E08627089512
:1013200021E0FC018485843008F020E0822F0895BC
:1013300008950F931F93CF938C01C62F0E945706D9
:101340006C2F6460C8010E9457066C2F6B7FC80128
:101350000E94570683EC90E00197F1F7CF911F911F
:101360000F9108950F931F93CF93DF938C01D62F86
:10137000C42F607F642B0E94990980E1D89FB0013F
:1013800011246C2BC801DF91CF911F910F910C9408
:101390009909CF93DF93CDB7DEB728970FB6F894AE
:1013A000DEBF0FBECDBF98E0ECE0F1E0DE011196AC
:1013B00001900D929A95E1F79091B804961708F470
:1013C0006FEF262F30E0220F331F41E050E04C0F2B
:1013D0005D1F240F351FF9016081680F606840E0D0
:1013E00080EB94E028960FB6F894DEBF0FBECDBF19
:1013F000DF91CF910C94B20940E061E080EB94E082
:101400000E94B2098BE39FE10197F1F7089541E053
:101410000E94B20981E090E00895FB010190002054
:10142000E9F73197AF01461B570BDC01ED91FC91B9
:101430000280F381E02D0994CF93DF930E942C0565
:10144000EC016CEA71E081ED93E00E940D0A8C0FD3
:101450009D1FDF91CF9108958F929F92AF92BF927F
:10146000EF92FF920F931F93CF93DF93CDB7DEB729
:10147000A1970FB6F894DEBF0FBECDBF7C01FA0175
:10148000CB0119A2223008F42AE08E010F5D1F4F14
:10149000822E912CB12CA12CBF01A50194010E9498
:1014A0000B36F901CA016A300CF5605DD8016E9304
:1014B0008D01232B242B252B79F790E080E01097CA
:1014C00021F0BD01C7010E940D0AA1960FB6F89444
:1014D000DEBF0FBECDBFDF91CF911F910F91FF9067
:1014E000EF90BF90AF909F908F900895695CDECF92
:1014F000CF93DF93AC0170E060E02AE081ED93E0F0
:101500000E942C0AEC016CEA71E081ED93E00E94EC
:101510000D0A8C0F9D1FDF91CF910895462F50E04B
:1015200070E060E02AE00C942C0A8F929F92AF92B8
:10153000BF92CF92DF92EF92FF920F931F93CF93C0
:10154000DF937C018B014C0182E0880E911C5701D6
:10155000E5E0AE0EB11CD0E0C0E0F40161914F01B6
:10156000C8010E948E0A6C016EE2C8010E94380414
:101570008C0D9D1DC80FD91F8A149B0471F7F701AC
:101580006581C8010E948E0A8C0F9D1FDF91CF914B
:101590001F910F91FF90EF90DF90CF90BF90AF9091
:1015A0009F908F9008956BE581ED93E00E94380441
:1015B0000E94D903AB01BC012AE081ED93E00E94B7
:1015C0002C0A82E691E00C942C056115710511F04E
:1015D0000C940D0A90E080E00895EF92FF920F9333
:1015E0001F93CF93DF9300D000D000D0CDB7DEB7EC
:1015F0008C017B01DC0118968D919C91892BB1F1B6
:101600000E94D30A85EF91E00E942C05F8016085C5
:10161000718581ED93E00E94E50A6AE381ED93E034
:101620000E943804C7010E94780AD8018D919C91CC
:10163000119718966D917C91DC01ED91FC910088D9
:10164000F189E02DA701099521E0019709F020E03B
:10165000822F26960FB6F894DEBF0FBECDBFDF9166
:10166000CF911F910F91FF90EF9008950E94D30AA0
:1016700084E092E00E942C05F801648181ED93E002
:101680000E948E0A6EE281ED93E00E943804D80138
:1016900015966C9181ED93E00E948E0A6EE281EDC9
:1016A00093E00E943804F801668181ED93E00E9486
:1016B0008E0A6EE281ED93E00E943804D8011796FD
:1016C0006C9181ED93E00E948E0A6CEA71E081EDED
:1016D00093E00E940D0AF80180819181DC01ED9177
:1016E000FC910684F785E02D2AEA31E03A832983CC
:1016F000D80114964D915D916D917C9117974B8314
:101700005C836D837E83A701BE016F5F7F4F9BCF9C
:101710000C947F30FB01808191810E94AC31892B38
:1017200091F081E090E00E94470581E090E00E9406
:10173000470561E087E00E94C9096FEA71E080EB2C
:1017400094E00C94E50A81E090E00E94470590E067
:1017500080E00E94470561E087E00E94C90969EBCB
:1017600071E0EDCFFB01808191810E94AC3121E0DD
:10177000009709F420E02093A803892B61F00E94D0
:10178000520961E087E00E94C90963EC71E080EBD7
:1017900094E00C94E50A0E944A0961E087E00E9407
:1017A000C9096DEC71E0F3CFFB01808191810E944A
:1017B000AC3121E0009709F420E02093A703892BA6
:1017C00071F061E085E00E94A50260E088E00E947F
:1017D000C90967ED71E080EB94E00C94E50A60E0E4
:1017E00085E00E94A50260E088E00E94C9096FEDD3
:1017F00071E0F1CFFB01808191810E94AC31892B96
:1018000071F061E084E00E94A50260E088E00E943F
:10181000C90967EE71E080EB94E00C94E50A60E0A2
:1018200084E00E94A50260E088E00E94C9096FEE92
:1018300071E0F1CFAF92BF92CF92DF92EF92FF9221
:101840000F931F93CF93DF9300D000D0CDB7DEB7B7
:101850008C016B017A018091D0038333E9F45B0141
:101860006801C40ED51EC016D106A9F10E946207F8
:101870008FE00E946D07812F0E946D07802F0E94CC
:101880006D070F5F1F4F80E00E946D07F501819388
:101890005F010E945807E7CF843369F50E94620711
:1018A00019830A838F2D8F778B83EC8264E070E03D
:1018B000CE0101960E943E07A70170E060E0C601DC
:1018C0000E940E38E114F10421F0B701C6010E9414
:1018D0003E070E945807C7010F900F900F900F907E
:1018E000DF91CF911F910F91FF90EF90DF90CF90FC
:1018F000BF90AF9008950E9462070F3F110509F055
:1019000030F419820A831B8263E070E0D1CF17FDA7
:101910000BC019820A8333E0169507953A95E1F7D3
:10192000007E08600B83F0CFC80126E0969587956E
:101930002A95E1F7807E19830A830115104C18F46B
:1019400080618B83E1CF8861FCCFCF93DF931F92BF
:10195000CDB7DEB72091340330E0322F2227260F97
:10196000371F90E0982F882741E050E0BE016F5F5D
:101970007F4F820F931F0E941A0C89810F90DF9175
:10198000CF910895CF93C82F462F61E070E00E9459
:10199000800861E070E08C2F0E94A50C8111F9CFC6
:1019A000CF910895CF93C82F80E591E00E94630204
:1019B00068E070E08C2FCF910C94C20CCF93C82FAD
:1019C00080E591E00E94630260E170E08C2FCF918E
:1019D0000C94C20CCF93DF93EC01888D843020F4FB
:1019E0000E94DE0C84E0888FDF91CF910895CF9321
:1019F000C82F80E591E00E94630263E070E08C2FC5
:101A0000CF910C94A50CCF93DF93EC018C8584309F
:101A1000D0F40E94F70C843189F0882379F0883162
:101A200069F021E08C3159F4E881F9810084F18575
:101A3000E02DCE01099521E0892B09F420E0822FC9
:101A4000DF91CF91089580E0FBCFCF92DF92EF92AC
:101A5000FF92CF93DF93EC018C85843068F40E9471
:101A6000D20C0E94D9036B017C018C850E94F70C7B
:101A7000811109C084E08C87DF91CF91FF90EF90B6
:101A8000DF90CF90089561E070E080E090E00E94E8
:101A9000A6030E94D903AB01BC014C195D096E0974
:101AA0007F098D859E85B0E0A0E0481759076A0739
:101AB0007B07D8F28C850E94DE0CDCCFCF93FC0133
:101AC000C08D80E591E00E94630260E270E08C2F9F
:101AD0000E94C20C62E070E08C2F0E94A50C84FD75
:101AE00016C062E070E08C2F0E94A50C83FF0AC034
:101AF00048E162E070E08C2F0E94800880E090E076
:101B0000CF91089580E591E00E946302E3CF40E128
:101B100062E070E08C2F0E94800881E0F0CFCF93CC
:101B2000DF931F92CDB7DEB741E050E0BE016F5F9B
:101B30007F4F90E080E00E941A0C89810F90DF9126
:101B4000CF910895CF93DF93C4E1D0E00E948F0D31
:101B5000882361F061E070E080E090E00E94A603DD
:101B60002197A1F780E0DF91CF91089581E0FBCF2D
:101B70001F93CF93DF931F92CDB7DEB7182F80E569
:101B800091E00E946302812F0E94370827E0129F94
:101B9000F0011124EC54FC4F22813381377041E075
:101BA00050E0BE016F5F7F4F820F931F0E941A0C9F
:101BB00089810F90DF91CF911F910895FC01808D55
:101BC000843040F4218D328D232B21F00E94B80DFA
:101BD00090E008958FEF9FEF0895CF93DF93FC017E
:101BE0002485243028F08FEF9FEFDF91CF91089567
:101BF000EC010190F081E02D0084F185E02D099544
:101C0000892B89F38C850E94B80D90E0EECFDA0124
:101C1000E0913403F0E0FE2FEE27E60FF71F90E08F
:101C2000982F8827A901BD018E0F9F1F0C941A0CB5
:101C30008F929F92AF92BF92CF92DF92EF92FF92DC
:101C40001F93CF93DF93CDB7DEB72C970FB6F894E1
:101C5000DEBF0FBECDBF2091D00314E0222339F1A7
:101C60006B017C0180E591E00E9463025E0127E048
:101C7000A20EB11C450110E063E070E0812F0E94CC
:101C8000A50CF40181934F01882349F11F5F1430A3
:101C900099F710E0F50181915F018D31D9F088311C
:101CA000C9F08A518230B0F01F5F143099F7812F4C
:101CB0002C960FB6F894DEBF0FBECDBFDF91CF914B
:101CC0001F91FF90EF90DF90CF90BF90AF909F90CB
:101CD0008F90089560E170E0812F0E94C20CA12EC8
:101CE000B12C83EE93E00197F1F742E870E060E0F9
:101CF000812F0E9480084FEF62E070E0812F0E94E8
:101D00008008B601C114D10491F480910001909132
:101D1000010101968115F0EC9F0708F45CC09093D7
:101D20000101809300016091000170910101812FF8
:101D30000E946B0886E0E4E1F1E0DE01119601907B
:101D40000D928A95E1F7F70183818F778C838481E7
:101D50008D8385818E83A7014E5F5F4F24E030E045
:101D60006CE070E0812F0E944508B601812F0E942F
:101D7000560826E030E0AE014F5F5F4F66E070E04E
:101D8000812F0E94450861E070E0812F0E94C20C03
:101D900027E02A9DC0012B9D900D11249C012C54FD
:101DA0003C4F7901F9011182108222E030E0AE014E
:101DB000455F5F4F68E270E0812F0E94070E8B85C0
:101DC0009C85982789279827F70193838283168219
:101DD000158214826CCF80E090ECA1CFCF92DF927D
:101DE000EF92FF920F931F93CF93DF9300D000D019
:101DF00000D0CDB7DEB78C016B017A01FC01808D7C
:101E0000843010F40E94DE0C8AEA91E09A83898380
:101E1000F60182819381A481B5818B839C83AD83FC
:101E2000BE83B701CE0101960E94180EF801808F83
:101E30008430A0F4F586E486128E118E81E0269619
:101E40000FB6F894DEBF0FBECDBFDF91CF911F91CB
:101E50000F91FF90EF90DF90CF90089580E0EFCF4B
:101E6000AF92BF92CF92DF92EF92FF920F931F93A8
:101E7000CF93DF9300D000D000D0CDB7DEB7082FCE
:101E80006B0180E591E00E9463029E012F5F3F4F4E
:101E90007901590110E063E070E0812F0E94A50CE8
:101EA000F50181935F01882341F11F5F143099F799
:101EB00010E0F70181917F018D31D1F08831C1F0BF
:101EC0008A518230A8F01F5F143099F7812F26962F
:101ED0000FB6F894DEBF0FBECDBFDF91CF911F913B
:101EE0000F91FF90EF90DF90CF90BF90AF9008954B
:101EF00060E170E0812F0E94C20CE12EF12C83EE94
:101F000093E00197F1F7402F70E060E0812F0E948D
:101F100080084FEF62E070E0812F0E948008B601D8
:101F2000CD2889F4809100019091010101968115DD
:101F3000F0EC9F0798F1909301018093000160916C
:101F4000000170910101812F0E946B0861E070E037
:101F5000812F0E94C20C27E02E9DC0012F9D900D65
:101F600011249C012C543C4F7901F90111821082FB
:101F700022E030E0AE014B5F5F4F68E270E0812FFE
:101F80000E94070E8D819E81982789279827F70147
:101F90009383828316821582148298CF80E090EC1E
:101FA000CACFCF92DF92EF92FF921F93CF93DF932E
:101FB000EC017B016A018C85843048F40E94F70CA7
:101FC000882319F08C850E94D20C84E08C87F7015D
:101FD00082819381A481B5810097A105B10551F457
:101FE00090E080E0DF91CF911F91FF90EF90DF9024
:101FF000CF9008958F3F9F4FAF4FBF4F89F3809190
:10200000D003811103C084E08C87EACF70E060E0E8
:1020100081E20E94300F182F8C87843008F780E50A
:1020200091E00E946302A7014E5F5F4F24E030E021
:102030006CE070E0812F0E944508B601812F0E945C
:10204000560864E070E0812F0E94C20C0E94D90300
:102050006B017C018C850E94F70C873109F18C3172
:10206000F9F0882309F4BCCF0E94D903AB01BC016D
:102070004C195D096E097F098D859E85B0E0A0E051
:1020800084179507A607B70738F061E070E080E095
:1020900090E00E94A603DECF8C850E94DE0CB3CFB9
:1020A00081E090E09FCF0F931F93CF93DF93EC01DC
:1020B0008B01888D843010F40E94DE0C8091D00357
:1020C000811107C094E0988FDF91CF911F910F91FC
:1020D0000895B80182E00E94300F888F843030F478
:1020E0001D870C871A8E198E81E0EECF80E0ECCF31
:1020F0007F928F929F92AF92BF92CF92DF92EF9298
:10210000FF920F931F93CF93DF9300D0CDB7DEB72D
:10211000782E8B014A01590122E030E0AE014F5F79
:102120005F4F64E270E00E94070EE980FA80FE24AF
:10213000EF24FE24E00EF11E970137704091D0038A
:10214000072D10E0433309F042C0085F1F4F102FE6
:102150000027110F110F110FC901800F911F473375
:10216000C9F1A9014A0D5B1D4130584098F160E06A
:1021700078E06B01C21AD30AA601B4010E94740769
:10218000A5014C195D09B4016C0D7D1DC8010E94AB
:102190007407EA0CFB1CF982EA8222E030E0AE010F
:1021A0004F5F5F4F64E270E0872D0E9445080F90FB
:1021B0000F90DF91CF911F910F91FF90EF90DF90E3
:1021C000CF90BF90AF909F908F907F900895005FC9
:1021D0001F4FBDCFA501B401DACFEF92FF921F933D
:1021E000CF93DF9300D0CDB7DEB7182F22E030E0D9
:1021F000AE014F5F5F4F60E270E00E94070EE98022
:10220000FA80FE24EF24FE2422E030E0AE014F5F8E
:102210005F4F60E270E0812F0E94070E89819A81F2
:10222000982789279827E816F90689F487E0189FE8
:10223000F0011124EC54FC4FF582E482C7010F90A9
:102240000F90DF91CF911F91FF90EF9008957C0147
:10225000DBCF1F93CF93DF93182F80E591E00E948F
:102260006302812F0E94ED10EC0163E070E0812F8A
:102270000E94A50C873121F08C3111F0D0E0C0E034
:10228000CE01DF91CF911F910895CF93DF93EC01A1
:102290008C85843060F40E94F70C873111F08C310A
:1022A00031F48C850E9429118115984088F3DF91C3
:1022B000CF910895FC018485843010F40C94291189
:1022C00090E080E008959F92AF92BF92CF92DF920C
:1022D000EF92FF920F931F93CF93DF938C015B01DB
:1022E000942EE52EFC01C688D788F08C80E591E01D
:1022F0000E9463028F2D0E94ED10C92DDE2D8C17D8
:102300009D0708F4EC019E01A501B6018F2D0E94E6
:102310007810F801868997898C0F9D1F978B868B83
:10232000CE01DF91CF911F910F91FF90EF90DF9041
:10233000CF90BF90AF909F9008958F929F92AF9251
:10234000BF92CF92DF92EF92FF920F931F93CF93A2
:102350006C015B018A01FC01C485C430F0F57A018F
:102360004130584018F0E12C88E0F82E80E591E0EB
:102370000E9463028C2F0E94ED104C0163E070E01C
:102380008C2F0E94A50C873111F08C3149F58E14E9
:102390009F0460F380E591E00E9463029701A5012C
:1023A00070E060E08C2F0E94781060E270E08C2F6B
:1023B0000E94C20C62E070E08C2F0E94A50C84FD8C
:1023C00017C063E070E08C2F0E94A50C81110BC038
:1023D00081E090E0F6019383828310E000E010C07A
:1023E000F12CE12CD7CF80E591E00E946302E2CF8F
:1023F00040E162E070E08C2F0E948008EF2841F3FA
:10240000C801CF911F910F91FF90EF90DF90CF9077
:10241000BF90AF909F908F900895FF920F931F935E
:10242000CF93DF9300D0CDB7DEB7F82E22E030E0B7
:10243000AE014F5F5F4F66E270E00E94070E0981B8
:102440001A8110270127102722E030E0AE014F5FEC
:102450005F4F66E270E08F2D0E94070E89819A819E
:102460009827892798270817190749F4C8010F905A
:102470000F90DF91CF911F910F91FF9008958C01E4
:10248000E3CF1F93CF93DF93182F87E0189FE001CE
:102490001124CC54DC4F88819981009761F480E548
:1024A00091E00E946302812F0E940D122E81821BF7
:1024B000910999838883DF91CF911F910895FC0141
:1024C0008485843010F40C94411290E080E00895EB
:1024D0004F925F927F928F929F92AF92BF92CF92D4
:1024E000DF92EF92FF920F931F93CF93DF9300D071
:1024F000CDB7DEB7782E6B014A01A82EB12C27E0AC
:10250000829FC0011124FC01EC54FC4F7F0100812B
:10251000118180E591E00E9463020815190554F4C9
:10252000872D0E940D12F70126818C01021B1109D3
:10253000118300830115110529F563E070E0872DF3
:102540000E94A50C843159F0882349F001E010E085
:102550008C3111F410E000E0119501951109C801CA
:102560000F900F90DF91CF911F910F91FF90EF90FF
:10257000DF90CF90BF90AF909F908F907F905F90B3
:102580004F900895801691060CF4840187E08A9D8F
:10259000F0018B9DF00D1124EC54FC4FE280F38090
:1025A000C114D10451F12701F7E05F22872D0E9469
:1025B0003708840D951D2091D003273309F453C0AB
:1025C0009801240D351D2130384008F44CC020E01E
:1025D00038E0490184189508A401B6010E941A0C3C
:1025E0002601480C591C6801C818D908872D0E947B
:1025F0003708A601B2010E941A0CE00EF11E87E016
:102600008A9DF0018B9DF00D1124EC54FC4FF38258
:10261000E28220813181201B310B3183208386812E
:10262000800F912F911D8A3F910510F4232BF1F417
:1026300087E08A9DF0018B9DF00D1124EC54FC4F36
:102640001682F982EA8222E030E0AE014F5F5F4FEE
:1026500068E270E0872D0E94450860E470E0872DF5
:102660000E94C20C7CCFA801B601C5CF868377CF6C
:10267000CF93DF93FC01218D328D2115310529F493
:102680008FEF9FEFDF91CF910895EC01808D42177E
:10269000530708F0A9010E9468121816190684F75A
:1026A000298D3A8D281B390B3A8F298FEBCF0F9349
:1026B0001F93CF93DF931F92CDB7DEB7FC01218D1F
:1026C000328D232B41F48FEF9FEF0F90DF91CF914D
:1026D0001F910F9108958C0141E050E0BE016F5FA2
:1026E0007F4FFC01808D0E946812181619065CF756
:1026F000F801818D928D0197928F818F898190E071
:10270000E4CFCF93DF931F92CDB7DEB741E050E027
:10271000BE016F5F7F4FFC0184850E94681218160E
:10272000190634F4898190E00F90DF91CF910895DC
:102730008FEF9FEFF9CFFC018485843010F40C9467
:10274000681290E080E008950F931F93CF93DF937A
:1027500000D0CDB7DEB7FC0124852430E0F48C0135
:1027600080E591E00E94630222E030E0AE014F5F1D
:102770005F4F60E170E0F80184850E94070E898157
:102780009A819827892798270F900F90DF91CF91F2
:102790001F910F91089590E080E0F6CF0F931F9363
:1027A000CF93DF9300D0CDB7DEB7FC012485243072
:1027B000E0F48C0180E591E00E94630222E030E0C9
:1027C000AE014F5F5F4F64E070E0F80184850E94C6
:1027D000070E89819A819827892798270F900F9053
:1027E000DF91CF911F910F91089590E080E0F6CF97
:1027F000DC018AEA91E08D939D9384E0FB010190D6
:102800000D928A95E1F70895EF92FF920F931F932F
:10281000CF93DF9300D000D0CDB7DEB78C017B0122
:10282000FB0184858430A8F08AEA91E0F801918365
:1028300080831282138214821582C8010F900F9038
:102840000F900F90DF91CF911F910F91FF90EF901C
:10285000089580E591E00E94630224E030E0AE013B
:102860004F5F5F4F6CE070E0F70184850E94070EB8
:10287000BE016F5F7F4FC8010E94F813DECF0F9338
:102880001F93CF93DF93CDB7DEB728970FB6F89499
:10289000DEBF0FBECDBF8C01D80159964D915C9122
:1028A0005A974115510551F0ED91FC91048CF58D2D
:1028B000E02D70E060E0C8010995EECFF801808D51
:1028C0000E944112892BB1F148E050E0BE016F5FD8
:1028D0007F4FD80158968C910E94681218161906DD
:1028E000F4F4D801509684E0FE01319601900D92E7
:1028F0008A95E1F78D8190E0982F88272E81820FAD
:10290000911DF801958B848B8F81282F30E0322F19
:1029100022278885820F932F911D928F818F289671
:102920000FB6F894DEBF0FBECDBFDF91CF911F91E0
:102930000F91089590E080E0F2CF4F925F926F92F6
:102940007F928F929F92AF92BF92CF92DF92EF923F
:10295000FF920F931F93CF93DF93CDB7DEB76397AB
:102960000FB6F894DEBF0FBECDBF7C016B013A01FC
:10297000FB0120E090E080E06AE03191332309F42C
:1029800061C040ED430F4A3008F04DC0689FA00180
:10299000699F500D1124CA01C097830F911D37FD07
:1029A0009A958F3F910549F340F3F7014281538196
:1029B000648175818091A6049091A704A091A804D8
:1029C000B091A904481759076A077B0709F40DC29B
:1029D0008701085F1F4F0E94D9036F7077277C5FC4
:1029E000C8010E945310813009F004C28AEA91E0C4
:1029F0009A838983F70182819381A481B5818B8336
:102A00009C83AD83BE8345E350E0BE016F5F7F4F83
:102A1000C8010E94D508892BA9F5D12CC12CC80169
:102A20000E94EA0C17C03E3209F0BFCF233009F4F0
:102A3000BCCFD301A20FB11D12968C932F5F90E0F3
:102A400080E09BCF233009F0B0CFF3018583CC2405
:102A5000C394D12CC60163960FB6F894DEBF0FBEA7
:102A6000CDBFDF91CF911F910F91FF90EF90DF903D
:102A7000CF90BF90AF909F908F907F906F905F901E
:102A80004F9008950E94D903F7017783668342E04F
:102A900050E0B7016A5F7F4FC8010E94631181E077
:102AA00090E09A83898342E050E0BE016F5F7F4FE0
:102AB000C8010E94631180E091E09A83898342E01B
:102AC00050E0BE016F5F7F4FC8010E9463111A8200
:102AD000198242E050E0BE016F5F7F4FC8010E9443
:102AE000631142E050E0BE016F5F7F4FC8010E945A
:102AF000631142E050E0BE016F5F7F4FC8010E944A
:102B000063115601F6018081882301F16501F60108
:102B100081912F01882311F08E32B1F446018A1879
:102B20009B081814190474F48D8641E050E0BE012E
:102B3000635F7F4FC8010E946311A401B501C80102
:102B40000E9463115201DECF6201E1CF1D8641E098
:102B500050E0BE01635F7F4FC8010E946311C12C2A
:102B6000DD24D394DA82C98242E050E0BE016F5F77
:102B70007F4FC8010E946311DA82C98242E050E0AF
:102B8000BE016F5F7F4FC8010E946311C8010E94A0
:102B90005E0D892B09F441CFF3E0AF2EB12C230158
:102BA00022E0420E511CD4C0F7014281538164815E
:102BB0007581808D918DA28DB38D481759076A0755
:102BC0007B0709F008C1848D958DC59709F003C175
:102BD00081A192A15DEFC52EDD24DA940C970CF44F
:102BE000ADC04CE050E0BE016F5F7F4FC8010E9456
:102BF00038138B819C819827892798279A8B898BFA
:102C0000F7014681578129813A814217530709F01C
:102C1000E7C097FFE5C08F7092703BEFC32EDD24B5
:102C2000DA94892B09F08AC06F807884762467242F
:102C300076242AEFC22EDD24DA946114710409F49B
:102C40007DC0D12CC12C8D819E8198278927982702
:102C5000C816D906F8F441E050E0BE01635F7F4F2B
:102C6000C8010E9438134D85442331F050E070E0D4
:102C700060E0C8010E9438138D858111ECCF44E0DB
:102C800050E070E060E0C8010E943813FFEFCF1AF7
:102C9000DF0AD9CF912C812C41E050E0BE016D5E5E
:102CA0007F4FC8010E9438134B89842F807C09F024
:102CB0006CC0442331F050E070E060E0C8010E9435
:102CC00038138B898111E8CF42E050E0BE01615F8B
:102CD0007F4FC8010E94381342E050E0BE01635F9D
:102CE0007F4FC8010E94381344E050E070E060E07C
:102CF000C8010E94381342E050E0BE016F5E7F4F72
:102D0000C8010E9438138F85988949895A8981158D
:102D1000914009F043C0CD84DE84DC24CD24DC2442
:102D200081E0C816D104D1F54115544009F04AC0DC
:102D300044E050E0B201C8010E94381321E0A21A19
:102D4000B10809F46CCEFFEFCF16DF0609F067CEAD
:102D50000E94D9033B014C01C8010E943F14181680
:102D600019060CF421CF0E94D90366197709880946
:102D70009909693873418105910548F562E370E06E
:102D800080E090E00E94A603E7CF41E050E070E0D1
:102D900060E0C8010E9438131B8A93CF542745274F
:102DA000542770E060E0C8010E943813FFEF8F1ACB
:102DB0009F0A6814790409F06FCF96EFC92EDD24BD
:102DC000DA94BCCFE7EFCE2EDD24DA94B7CFCC2453
:102DD000CA94DC2CB3CF6EEFC62EDD24DA94AECFCE
:102DE0004CEFC42EDD24DA94A9CF8EEFC82EDD245B
:102DF000DA9430CED12CC12C2DCECF92DF92EF922F
:102E0000FF920F931F93CF93DF93CDB7DEB7AF97AA
:102E10000FB6F894DEBF0FBECDBF7C016A010AEA8F
:102E200011E01A8309831C861B8688EE93E0A0E0DC
:102E3000B0E08D879E87AF87B88B8EE191E09A874F
:102E40008987188F0F8B198E1A8E1B8E1C8E84E02B
:102E500089A31BA70AA71CA61DA61EA61FA68091B4
:102E60009A0490919B04A0919C04B0919D048EA320
:102E70009FA3A8A7B9A78B839C83AD83BE83188625
:102E80001F82AE01465D5F4FCE0101960E949D14E8
:102E900081309105B1F4D701ED91FC910488F58959
:102EA000E02D1DA30CA38CA59DA5AEA5BFA58EA34B
:102EB0009FA3A8A7B9A7A601BE016C5D7F4FC7015C
:102EC0000995AF960FB6F894DEBF0FBECDBFDF9168
:102ED000CF911F910F91FF90EF90DF90CF900895C9
:102EE000CF92DF92EF92FF920F931F93CF93DF93D6
:102EF000CDB7DEB7AF970FB6F894DEBF0FBECDBF2C
:102F00008C016B017A018AEA91E09A8389831B82A2
:102F10001C821D821E821C861B8648EE53E060E0E8
:102F200070E04D875E876F87788B2EE131E03A87BE
:102F30002987988F8F8B198E1A8E1B8E1C8E24E0FA
:102F400029A39BA78AA71CA61DA61EA61FA6D8015B
:102F50001C968C91843060F40E94F70C882321F039
:102F6000F80184850E94D20C84E0D8011C968C93D1
:102F700080919A0490919B04A0919C04B0919D042F
:102F80008EA39FA3A8A7B9A78B839C83AD83BE8381
:102F900018861F82AE01465D5F4FB601CE010196D5
:102FA0000E949D140097C1F0D801ED91FC91068418
:102FB000F785E02D8AEA91E09DA38CA38CA59DA5C1
:102FC000AEA5BFA58EA39FA3A8A7B9A7A701BE01C1
:102FD0006C5D7F4FC8010995AF960FB6F894DEBFC0
:102FE0000FBECDBFDF91CF911F910F91FF90EF905A
:102FF000DF90CF9008957F928F929F92AF92BF9271
:10300000CF92DF92EF92FF920F931F93CF93DF93B4
:10301000CDB7DEB7A6970FB6F894DEBF0FBECDBF13
:103020008C01762E942E852E20E2A22ECE010196C2
:103030007C01DC01EA2D1D92EA95E9F76801F3E4D1
:10304000CF0ED11C8AEA91E09AA389A38FEF8BA3BC
:103050008CA38DA38EA343E450E0BE016F5D7F4F30
:10306000C6010E94D508019609F4BFC081E089839A
:103070008A8386E0B82EBB821C82D80114966D919B
:103080007D918D919C9117970E94C3366D837E83AD
:103090008F83988789869A8680E890E09C878B87C3
:1030A0004CE150E0B701C6010E946311FE01379662
:1030B0008AE1DF011D928A95E9F74801B8E08B0E9D
:1030C000911CF401D70101900D92BA94E1F740E10F
:1030D00050E0B701C6010E946311F7011192AA9452
:1030E000E9F796E0A92EB12C40E250E0B701C60105
:1030F0000E946311F1E0AF1AB108B1F783E689834A
:1031000092E89A8393E59B838C8385E38D8381E0AA
:103110008E837F829DE3988797E099878A8786E0F0
:10312000F401DE011B9601900D928A95E1F78CE087
:10313000898B8A8B67EF71E0CE0143960E941E381F
:10314000D8011B966C91CE0149960E946602F80147
:103150006485CE014B960E946602D8011D966C9143
:10316000CE014D960E9466024EE150E0B701C601C5
:103170000E946311B3E07B121EC082E3898384E066
:103180008A83F80196859B8397859C8390899D838C
:1031900091899E8396E39F838887828D8987838D1B
:1031A0008A87848D8B87858D8C874CE050E0B701B2
:1031B000C6010E94631187E3898386E08A8391E0D8
:1031C0009B8393E09C838D838FE08E838AE38F8340
:1031D0008BE388878FEF898749E050E0B701C6010C
:1031E0000E946311C6010E945E0DA6960FB6F89468
:1031F000DEBF0FBECDBFDF91CF911F910F91FF902A
:10320000EF90DF90CF90BF90AF909F908F907F9086
:1032100008950F931F93CF93DF93EC01FB0101906F
:103220000020E9F78F01061B170B8A819B81A801FB
:10323000480F591F2C813D812417350768F02881DC
:103240003981A801820F931F0E9405384A815B8152
:10325000400F511F5B834A83DF91CF911F910F91E4
:1032600008950F931F93CF93DF93EC018881998189
:10327000009759F02A813B812617370730F081E00B
:10328000DF91CF911F910F9108958B016F5F7F4F59
:103290000E943B37009759F0998388831B830A83E8
:1032A0002C813D81232B59F7FC011082E8CF80E06F
:1032B000E7CF85ED8093BC0080910A0390910B03CA
:1032C000A0910C03B0910D030796A11DB11D23E041
:1032D000B695A795979587952A95D1F72091BC002B
:1032E00024FD03C010920803089540910A035091F1
:1032F0000B0360910C0370910D03452B462B472B5C
:1033000069F30097A105B10541F02AE22A95F1F78A
:1033100000C00197A109B109E1CF809109030C9484
:10332000B1053F924F925F926F927F928F929F92E0
:10333000AF92BF92CF92DF92EF92FF920F931F93C3
:10334000CF93DF93CDB7DEB7EA970FB6F894DEBF21
:103350000FBECDBF7C012A013B0169010E94D90348
:103360004B015C0187010D5B1F4FC8010E943F1498
:10337000181619069CF00E94D903681979098A0960
:103380009B09461657066806790608F466C162E38B
:1033900070E080E090E00E94A603E7CF42E250E0B8
:1033A000BE016F5F7F4FC8010E9438138981823050
:1033B000D1F0312C832DEA960FB6F894DEBF0FBE04
:1033C000CDBFDF91CF911F910F91FF90EF90DF90D4
:1033D000CF90BF90AF909F908F907F906F905F90B5
:1033E0004F903F900895F801848995898334910521
:1033F00001F76D817E818F8198850E94C3364B01D4
:103400005C01F60180829182A282B38246E050E0A4
:10341000B701685F7F4FCE014D960E94F837892B28
:1034200041F6F70180819181A281B38188169906C6
:10343000AA06BB0608F4BDCF84819581A681B78119
:1034400088159905AA05BB0508F4B3CF89899A891F
:10345000AB89BC8986879787A08BB18B4EEC50E0F7
:1034600070E060E0C8010E943813312CC7018296D9
:1034700098AB8FA7F701B696FAABE9AB08969CAB71
:103480008BAB67019AE1C90ED11CBD96FEABEDABCB
:10349000C701429698AF8FABFD97FAAFE9AF4701EE
:1034A000FEE18F0E911CF801818D928D1816190680
:1034B0000CF080CFC8010E9457138333910509F4A3
:1034C000B2C014F58130910509F464C044F4892B2D
:1034D00051F3C8010E945713AC01552775C08330C2
:1034E000910509F462C00697A1F7C8010E9457131D
:1034F000B82E44E050E0B401C8010E943813EB2D0F
:10350000E450FF0BAF0160C08A33910509F45FC03E
:1035100084F585339105B1F1C697D9F6C8010E94AB
:1035200057135C01B601CE0189960E94F8138BA552
:103530009CA5ADA5BEA5892B8A2B8B2BB1F0EDA93F
:10354000FEA94080518062807380B601CE018396CF
:103550000E94F8138DA19EA1AFA1B8A5A5014816A0
:1035600059066A067B0609F0B8CF44E050E0B60180
:1035700018C08B33910509F440C08F3F910509F4C1
:1035800092CFA7CFC8010E945713C8010E945713BA
:10359000382E89CFC8010E94571344E050E06FA92C
:1035A00078ADC8010E9438137ECFC8010E9457131E
:1035B000B82E44E050E069AD7AADC8010E943813DE
:1035C0008B2D8450990BAC0170E060E0EACFC8010C
:1035D0000E94571344E050E069A97AA9C8010E94EB
:1035E0003813F70166A177A180A591A50E94C33683
:1035F00066A377A380A791A756CFC8010E9457134F
:1036000044E050E06BA97CA9C8010E943813F7017F
:1036100062A573A584A595A50E94C33662A773A76A
:1036200084A795A740CFC8010E94571344E050E0FB
:103630006FA578A9C8010E943813F70162A173A190
:1036400084A195A10E94C33662A373A384A395A30A
:1036500066A777A780AB91AB26CF33243A94AACE46
:103660000F931F93CF93DF93CDB7DEB728970FB695
:10367000F894DEBF0FBECDBF8C01CB014AE0BE0186
:103680006F5F7F4F0E94FA31BE016F5F7F4FC801AD
:103690000E94091928960FB6F894DEBF0FBECDBF61
:1036A000DF91CF911F910F9108953F924F925F92BA
:1036B0006F927F928F929F92AF92BF92CF92DF9242
:1036C000EF92FF920F931F93CF93DF93CDB7DEB7A7
:1036D000A1970FB6F894DEBF0FBECDBF5C010DB74A
:1036E0001EB719A308A360E070E0CB010E94A603F7
:1036F000D50191968D919C919297912C029709F406
:10370000C6C390968C9190978F5F90968C9390976C
:103710005E962D913C91232B19F099249394B0C37C
:103720008330D8F7F501828593850E945A09882352
:1037300009F486C38E010F5F1F4F3801D5011A9619
:10374000ED91FC9180819181DC01ED91FC910084EF
:10375000F185E02D0995181619060CF071C3D501F5
:103760001A96ED91FC9145E050E0BE01695E7F4FF5
:10377000808191810E94E803009701F3059709F089
:1037800074C0888D998D982789279827998F888F5D
:10379000EA8CFB8CFE24EF24FE24FB8EEA8E892B20
:1037A00009F463C08F89811174C00E94D903F501A7
:1037B000608B718B828B938B21A132A18A8D9B8D23
:1037C000232B09F062C0288D398D2130310509F095
:1037D0005CC089309105E1F1883C910519F00497AE
:1037E00009F048C00E94D30A8BE093E00E942C05A8
:1037F000D50150964D915D916D917C91539758965E
:103800008D919D910D90BC91A02D481B590B6A0B79
:103810007B0B2AE081ED93E00E942C0A86E093E086
:103820000E941C0AF50180899189A289B389808F41
:10383000918FA28FB38F01E010E012A301A3C50105
:103840000E945C2560E070E0CB010E94A60376CF69
:103850000E94D30A87E394E00E941C0A83E090E070
:10386000D50192969C938E939197D5011A968D913E
:103870009C9103C30E94D30A80E294E00E942C052D
:103880008A8D9B8D0E94780AF0CF059709F056CF5C
:10389000ECCFB1E0EB16FB0690F00E94D30A8FE06C
:1038A00094E00E942C058A8D9B8D0E94780AF50178
:1038B00012A211A2828593850E946D093FCF8DB619
:1038C0009EB6C70101960DB71EB7081B190B0FB6A0
:1038D000F8941EBF0FBE0DBF0F5F1F4FD5011A9684
:1038E000ED91FC91A701B801808191810E94E803CC
:1038F0008E159F0509F064C0EA8DFB8DE00FF11F66
:1039000010820E94D903F501608B718B828B938B9F
:103910008F89843109F4C7C0E8F48F3009F4C3C03B
:10392000813109F461C2863009F082C2488D598D17
:10393000D12CC12CF12CE12C08EC10E030E020E07F
:1039400060E0C5010E9450200FB6F8949EBE0FBEE5
:103950008DBEF4CE8932F1F0873309F45AC28D312D
:1039600009F066C281A192A1892B01F70E94D30AB6
:1039700089E094E00E941C0A01E010E0F50112A326
:1039800001A3C5010E945C2560E070E0CB010E94AC
:10399000A603CCCF86859785892B39F480E490E007
:1039A0000E94E32FF50197878687EA8CFB8CE00E57
:1039B000F11E1A830983FC82EB820E151F0530F07D
:1039C0000FB6F8949EBE0FBE8DBE4FCF40E450E0C0
:1039D000B801D5011E968D919C910E942538D50184
:1039E0001E96ED91FC9117AEC3010E943A25FC0191
:1039F0008081918100E510E08E159F0570F489812A
:103A00009A81009709F44BC02B813C818217930760
:103A100008F045C00E94CA318B010E94D30A89EF89
:103A200093E00E942C05D5011E966D917C9181ED4D
:103A300093E00E94E50A6AE381ED93E00E94380476
:103A4000C8010E94780AF501828593850E946D095C
:103A5000D5011A96ED91FC911B971E968D919C9124
:103A60001F97918780871387028792961C921E92D8
:103A700091970E94D903DC01CB0188589341A10999
:103A8000B109F501848B958BA68BB78B808B918BBD
:103A9000A28BB38B808F918FA28FB38F55CF60E0B5
:103AA00070E0CB01B9CF888D998DD5015F969C933D
:103AB0008E935E974A8C5B8C6801C40CD51C1D8F5D
:103AC0000C8FDF8ECE8E0C151D0508F013C1F8018A
:103AD000E080F180CE014C960E943A25DC018D9168
:103AE0009C918C159D0508F005C18C8D9D8DFC0168
:103AF0002081213459F401960E94AC314EE0342EDD
:103B0000380E069744F033243A9405C0CE014C9603
:103B10000E944D25382EF6E7EF16F2E7FF0609F46E
:103B200006C138F531E6E31632E7F30609F4E6C0DC
:103B300044E6E41642E7F40609F478C050E7E516D7
:103B40005DE6F50609F039C18C8D9D8D8C159D05BE
:103B500008F0D0C0FC0120812134A9F501960E9413
:103B6000AC313EE0F32EF80E069794F1FF24FA9460
:103B70002FC084E6E81687E7F80609F4A2C096E7A6
:103B8000E91697E7F90609F4EAC0A1E6EA16A7E7FD
:103B9000FA0609F012C1CE014C960E943A25DC01CA
:103BA0008D919C918C159D0508F0A4C061E0832D3A
:103BB0000E94D302CE014C960E944D25BC01832D5C
:103BC0000E940F0397C0CE014C960E944D25F82EFF
:103BD000CE014C960E943A250C8D1D8D6EEF71E042
:103BE000C8010E94153860E0892B79F061E072E02D
:103BF000C8010E941538892B39F065E072E0C801D0
:103C00000E941538892B49F461E08F2D0E94D30260
:103C1000CE014C960E943A2597CF69E072E0C80128
:103C20000E941538892BA1F762E0EFCF7A8A698A62
:103C30001C8A1B8A00E110E01E8B0D8B6CE072E089
:103C4000CE0141960E940919032D10E0B801CE0162
:103C500041960E94301BF801E55BFC4F8491F8010E
:103C6000E95CFC4FF4900D5D1C4FF801049160E09D
:103C700070E0002389F081110E947C02E02FF0E0C7
:103C8000EE0FFF1FE75EFC4FA591B491EC91FE2271
:103C900061E070E009F460E0CE0141960E94301BC3
:103CA0000B891C890150110929893A89D12CC12C11
:103CB000F12CE12C50E040E064E1C5010E9450206D
:103CC00019C0CE014C960E943A25DC018D919C9141
:103CD0008C159D0578F461E0832D0E94D302CE01FE
:103CE0004C960E944D2561E0892B09F460E0832DFC
:103CF0000E94A502F501178E168E26CE7A8A698A51
:103D00001C8A1B8AE0E1F0E0FE8BED8B6FE072E035
:103D1000CE0141960E940919632D70E0CE014196B3
:103D20000E94301B832D0E946C03BC01B5CFE32D94
:103D3000F0E0FA83E983BFE1B315E0F2EE0FFF1F75
:103D4000E15AFC4F259134912115310599F2E2E0B9
:103D500022363E0779F2C301F9010995CBCFCE0196
:103D60004C960E943A258C8D9D8D9C01201B310B19
:103D7000421A530A9A8389835C824B825E824D8207
:103D8000E32DF0E0FA8BE98B0FE1031508F4B2CFD5
:103D9000EE0FFF1FE156FC4F25913491211531059F
:103DA00009F4A8CF12E02136310709F4A3CFB301FB
:103DB000CE014196F90109959DCF0E94D30A8FED5E
:103DC00093E00E942C05C8010E942725D5015E962C
:103DD0004D915C91D12CC12CF12CE12C02E010E032
:103DE00030E020E060E069CF8A8D9B8D800F911FCD
:103DF0001A8309839C838B830817190708F0A4CDC5
:103E0000C3010E943A25D5015F961C921E925E97CF
:103E10009BCD8A8D9B8D892B09F496CD0E94D30A68
:103E200080EF93E00E942C05C8010E9427258CCDCD
:103E3000F50112A211A2828593850E946D0984CD9D
:103E40000E94D9032B013C01F501828593850E94D4
:103E50005A09D50191962D913C91929721303105C7
:103E600009F094C0F501811132C0408E518E628EEE
:103E7000738E12A211A2828593850E946D09912CE6
:103E8000D50190968C919097815090968C93892D26
:103E9000E8A1F9A10FB6F894FEBF0FBEEDBFA19641
:103EA0000FB6F894DEBF0FBECDBFDF91CF911F914B
:103EB0000F91FF90EF90DF90CF90BF90AF909F90C9
:103EC0008F907F906F905F904F903F900895808982
:103ED0009189A289B38993018201081B190B2A0BCE
:103EE0003B0BD901C801893116EF9107A105B10536
:103EF00060F00E94D30A88E594E00E941C0AD50174
:103F000092961C921E929197B1CC893C9F4AA10532
:103F1000B10598F4F50184899589A689B78993013B
:103F20008201081B190B2A0B3B0BD901C801893CE4
:103F30009F4AA105B10508F4F0CBF501808D918D64
:103F4000A28DB38D93018201081B190B2A0B3B0B29
:103F5000D901C80181379741A105B10508F4DDCB2E
:103F6000D12CC12CF12CE12C10E000E030E020E05D
:103F700050E040E066E0C5010E945020D50158960F
:103F80004D925D926D927C925B97C7CB232B09F08B
:103F9000C4CBF501408D518D628D738D93018201EB
:103FA000041B150B260B370BB901A8018823B1F0B0
:103FB000413757416105710508F4AFCB0E94D30A20
:103FC0008AE494E00E941C0AD5011A968D919C9176
:103FD0000E946D09F50112A211A251CF4938534137
:103FE0006105710508F499CB1A968D919C910E94F8
:103FF0006D09F50102851385D8011A966D917C91A2
:10400000C8010E94ED0AF801848781110DC08285E4
:1040100093858035910599F460E97FE1C8010E949C
:10402000ED0AD8011C968C93D8011C969C90911097
:1040300011C0F501408E518E628E738E21CF803972
:104040009F4191F760E570E0C8010E94ED0AF80118
:104050008487EACF81E090E0D5015D969C938E93B2
:104060005C971C962D913C91F90101900020E9F795
:1040700031978F01021B130BD12CC12CF12CE12C99
:1040800041E050E06DE1C5010E945020F5018489B6
:104090009589A689B789808F918FA28FB38FF0CE33
:1040A0002F923F924F925F926F927F928F929F9248
:1040B000AF92BF92CF92DF92EF92FF920F931F9336
:1040C000CF93DF93CDB7DEB7C854D1090FB6F894BC
:1040D000DEBF0FBECDBF4C0168AF5AAF49AF2796C8
:1040E0003FAF2EAF279721961FAF0EAF219729968E
:1040F000FFAEEEAE29972396DFAECEAE2397DC015E
:104100001A968D919C910E945A09882309F4B7C18F
:10411000B8ADBB2351F0B63041F0BD3131F0F40100
:1041200081A192A1019709F0AAC188AD8F50863074
:10413000A0F5D40154964D915D916D917C91579766
:104140005096CD90DD90ED90FC905397C416D50617
:10415000E606F70610F46A017B01B2E4CB0ED11C2F
:10416000E11CF11C0E94D903A7019601261B370B05
:10417000480B590BDA01C901B7FD9BC1C4010E946C
:10418000551B0E94D903A7019601261B370B480B2C
:10419000590BDA01C901B7FFF1CFF4018081918198
:1041A000019709F0B2C082E090E091838083228180
:1041B0003381448155816681778180859185A0E036
:1041C000FE017A960E94293709F486C1FBABEAAB5F
:1041D0001DAA1CAA88E190E09FAB8EAB6CEF71E04A
:1041E000CE01C2960E940919D40112964C901297E2
:1041F00013965C90139714966C90149715967C9078
:1042000015971696BC91BBAFF401F781FCAFD401B2
:1042100018962C90189719963C90198E9201A3012C
:104220006BAD7F2FC101A0E00E94293709F44AC17C
:10423000FE0179962596FFAFEEAF259727E130E096
:104240003EAF2DAF8AE0A82EB12CC12CD12CE12C91
:10425000F12C00E010E09201A3016BAD7CADC10137
:104260000E94CA36F901EC5EFD4F80812596AEAD05
:10427000BFAD25978E932596BFAFAEAF2597EDAD19
:10428000FEAD3197FEAFEDAF9AE0A92EB12CC12C57
:10429000D12CE12CF12C00E010E09201A3016BADD8
:1042A0007CADC1010E94CC3629013A016BAF7CAFD5
:1042B0001C01A0E00E94293721F04DAD5EAD452BD9
:1042C00009F66DAD7EAD6C0F7D1F6E5F7F4F09F0FF
:1042D000FEC0EAA9FBA98CA99DA99C012F5F3F4FB5
:1042E0003DAB2CABE80FF91F10820CA91DA90150A2
:1042F00011092AA93BA9D12CC12CF12CE12C50E0A9
:1043000040E065E1C4010E94502029AD3AAD232B65
:10431000B9F4D4015E960D90BC91A02DBAAFA9AFAF
:10432000AB2B71F4F401848D958D019609F4E9C0ED
:10433000958F848FF401048CF58DE02DFAAFE9AFF1
:1043400027962EAD3FAD279721960EAD1FAD219735
:104350000B5F1F4F232B11F405E010E029964EADA3
:104360005FAD299790E080E0452B21F023968EAD3C
:104370009FAD2397080F191F58AD598389AD9AAD8A
:104380009827892798279B838A8321968EAD9FAD96
:1043900021972396AEADBFAD23978A0F9B1F982719
:1043A000892798279D838C83D4011A96ED91FC91DF
:1043B00080819181DC01ED91FC910280F381E02DFF
:1043C00045E050E0BE016F5F7F4F09957C0160E0E2
:1043D00070E0CB010E94A603B8ADBB2309F444C032
:1043E0002196EEADFFAD2197EF2BE1F0D4011A96A7
:1043F000ED91FC9180819181DC01ED91FC91028035
:10440000F381E02D21964EAD5FAD219727966EADDD
:104410007FAD27970995E80EF91E60E070E0CB01AB
:104420000E94A6032396EEADFFAD2397EF2BE1F09C
:10443000D4011A96ED91FC9180819181DC01ED917E
:10444000FC910280F381E02D23964EAD5FAD239762
:1044500029966EAD7FAD29970995E80EF91E60E0AB
:1044600070E0CB010E94A603E016F10609F44EC0ED
:10447000F40112A211A2828593850E946D09C85B86
:10448000DF4F0FB6F894DEBF0FBECDBFDF91CF91E7
:104490001F910F91FF90EF90DF90CF90BF90AF9062
:1044A0009F908F907F906F905F904F903F902F9054
:1044B0000895D40190968C9181116FCEC4010E9411
:1044C000551B6BCE80E3888FBE01685E7F4FCE01A7
:1044D000C2960E94091909CFFA83E9831C821B82C4
:1044E00084E090E09E838D8362E172E0CE010196CC
:1044F0000E9409190B811C810150110929813A81FF
:10450000FACE81E090E0958F848F14CF0E94D9037A
:10451000D40154966D937D938D939C935797AFCF11
:10452000CF92DF92EF92FF920F931F93CF93DF937F
:10453000CDB7DEB7C658D1090FB6F894DEBF0FBEAF
:10454000CDBF7C018B01CE010196CF57DF4F998300
:104550008883C158D040CD57DF4F19821882C35885
:10456000D04080E890E0CB57DF4F99838883C558CF
:10457000D04068E372E0CE018F579F4F0E94091927
:10458000B701CE018F579F4F0E94301BB801CE015B
:104590008F579F4F0E94301BCD57DF4F08811981E5
:1045A000C358D04001501109CF57DF4F28813981BE
:1045B000C158D040D12CC12CF12CE12C50E040E06E
:1045C00064E184E795E00E945020CA57DF4F0FB6A0
:1045D000F894DEBF0FBECDBFDF91CF911F910F9139
:1045E000FF90EF90DF90CF900895CF92DF92EF92FF
:1045F000FF920F931F93CF93DF93CDB7DEB7C75AC8
:10460000D1090FB6F894DEBF0FBECDBF0E942E09B0
:104610006B017C01CE010196CE55DF4F99838883D3
:10462000C25AD040CC55DF4F19821882C45AD040AC
:1046300080E890E0CA55DF4F99838883C65AD040FE
:1046400068E372E0CE018E559F4F0E94091961E028
:1046500070E0CE018E559F4F0E94301B8E010F5788
:104660001F4F23E045E0C701B6010E94C52FB801E6
:10467000CE018E559F4F0E940919CC55DF4F0881FE
:104680001981C45AD04001501109CE55DF4F2881FD
:104690003981C25AD040D12CC12CF12CE12C50E0F0
:1046A00040E064E184E795E00E945020C955DF4F67
:1046B0000FB6F894DEBF0FBECDBFDF91CF911F9133
:1046C0000F91FF90EF90DF90CF9008951F920F927F
:1046D0000FB60F9211242F933F938F939F93AF9315
:1046E000BF938091AC039091AD03A091AE03B091C4
:1046F000AF033091AB0323E0230F2D3758F501961C
:10470000A11DB11D2093AB038093AC039093AD0327
:10471000A093AE03B093AF038091B0039091B10327
:10472000A091B203B091B3030196A11DB11D809376
:10473000B0039093B103A093B203B093B303BF91BE
:10474000AF919F918F913F912F910F900FBE0F903E
:104750001F90189526E8230F0296A11DB11DD2CFF8
:104760001F920F920FB60F9211242F933F934F93E6
:104770005F936F937F938F939F93AF93BF93EF93C9
:10478000FF9381ED93E00E94BD04FF91EF91BF91F3
:10479000AF919F918F917F916F915F914F913F91D9
:1047A0002F910F900FBE0F901F9018951F920F9290
:1047B0000FB60F9211242F938F939F93EF93FF9334
:1047C000E091E103F091E2038081E091E703F09151
:1047D000E80382FD1BC090818091EA038F5F8F7395
:1047E0002091EB03821741F0E091EA03F0E0EF52F1
:1047F000FC4F958F8093EA03FF91EF919F918F91EA
:104800002F910F900FBE0F901F9018958081F4CFBD
:104810001F920F920FB60F9211242F933F934F9335
:104820005F936F937F938F939F93AF93BF93EF9318
:10483000FF938091B900887F803609F44AC0F0F573
:10484000883209F4A7C018F5803109F49BC0B8F488
:10485000882309F4F9C0883009F494C0FF91EF91DE
:10486000BF91AF919F918F917F916F915F914F9188
:104870003F912F910F900FBE0F901F901895883188
:1048800009F488C0803251F78093060314C0803445
:1048900009F49DC040F48033B9F38833F9F680936E
:1048A000060385ECB0C0803509F485C0883509F46D
:1048B00096C0883499F60E945919D0CF883909F4E6
:1048C0008CC038F5883729F050F4883611F08037DD
:1048D00029F683E0809308031092E10257C08838DC
:1048E00009F47BC0803919F0803809F0B7CF809186
:1048F000E102803208F071C0E091E10281E08E0FA8
:104900008093E1028091BB00F0E0EF53FD4F808384
:104910003DC0803B39F0E0F4803A09F479C0883A30
:1049200009F09CCF84E0809308031092C00210929B
:10493000BF02E091A003F091A10309958091BF020D
:1049400081110FC081E08093BF0210929F0209C0C5
:10495000803C09F4A6CF883C09F4A3CF883B09F03A
:104960007DCFE091C00281E08E0F8093C002F0E025
:10497000E156FD4F80818093BB009091C0028091F1
:10498000BF0229C08091E3028093BB0085EC809335
:10499000BC0064CF9091050380910403981758F5EB
:1049A000E091050381E08E0F80930503F0E0EC5168
:1049B000FD4F8081E9CFE091050381E08E0F809368
:1049C00005038091BB00F0E0EC51FD4F8083909196
:1049D0000503809104039817C8F285E8D8CFE091C9
:1049E000050381E08E0F809305038091BB00F0E00A
:1049F000EC51FD4F80838091070381115CCF81E0F2
:104A00008093E20284EA8093BC001092080326CFD0
:104A100085EC8093BC00109208038091E102803203
:104A200030F4E091E102F0E0EF53FD4F108260912D
:104A3000E10270E0E0919E03F0919F0381EC92E02F
:104A400009951092E1020ACF1092060334CFCF935A
:104A5000DF93BC0181ED93E00E940D0AEC016CEA4A
:104A600071E081ED93E00E940D0A8C0F9D1FDF9194
:104A7000CF910895DC01ED91FC911197309761F091
:104A800012962D913C911397E217F30728F40190A9
:104A90000020E9F7ED93FC930895FC01808191815A
:104AA000009739F0228133818217930710F40C9418
:104AB000AC3190E080E00895AF92BF92CF92DF9248
:104AC000EF92FF920F931F93CF93DF93CDB7DEB793
:104AD000CC5CD1090FB6F894DEBF0FBECDBF5C0130
:104AE000CE0189579F4FC953DF4F99838883C75C95
:104AF000D040C753DF4F19821882C95CD04080E490
:104B000090E0C553DF4F99838883CB5CD04065E24A
:104B100072E0CE0189539F4F0E9409196AE272E048
:104B2000CE0189539F4F0E94091946E850E06DE677
:104B300071E0CE0101960E94F131C753DF4FC8806A
:104B4000D980C95CD04081E0C81AD108C953DF4F71
:104B5000E880F980C75CD04006E810E09E012F5F36
:104B60003F4F50E040E061E1C5010E945020C45336
:104B7000DF4F0FB6F894DEBF0FBECDBFDF91CF91F0
:104B80001F910F91FF90EF90DF90CF90BF90AF906B
:104B900008951092D4031092D30388EE93E0A0E01E
:104BA000B0E08093D5039093D603A093D703B0933E
:104BB000D80328E431E03093D2032093D10325ECCD
:104BC00030E03093DE032093DD0324EC30E03093BB
:104BD000E0032093DF0320EC30E03093E2032093E6
:104BE000E10321EC30E03093E4032093E30322EC73
:104BF00030E03093E6032093E50326EC30E0309379
:104C0000E8032093E7031092EA031092EB0310925B
:104C1000EC031092ED0310927104109270048093D3
:104C2000720490937304A0937404B09375048AE59E
:104C300091E090936F0480936E048AEA91E09093E0
:104C40007B0480937A0410927C0410927D0410926D
:104C50007E0410927F0490938104809380041092CC
:104C6000820410928304109284041092850490931D
:104C7000870480938604109288041092890410920D
:104C80008A0410928B0490938D0480938C0410926C
:104C90008E0410928F0410929004109291049093BD
:104CA00093048093920410929404109295041092AD
:104CB00096041092970490939F0480939E04109200
:104CC000A0041092A1041092A2041092A304909345
:104CD00099048093980410929A0410929B04109265
:104CE0009C0410929D049093A5048093A4041092B8
:104CF000A6041092A7041092A8041092A9049093FD
:104D0000AB048093AA041092AC041092AD041092EC
:104D1000AE041092AF049093BA058093B905109237
:104D2000BB051092BC051092BD051092BE051092F5
:104D3000AD051092AC0528E731E03093AB05209328
:104D4000AA0524E02093B60528EE33E03093B80599
:104D50002093B7059093A00580939F051092A1051D
:104D60001092A2051092A3051092A4051092A60518
:104D70001092A5051092A8051092A7051092A905FA
:104D80008AEA95E090939E0580939D0580E797E1E0
:104D9000A0E0B0E08093AE059093AF05A093B0057E
:104DA000B093B105109275051092740510927605B6
:104DB00010927705109278051092790510927A0575
:104DC00010927B0510927C0510927D058DE995E08F
:104DD00090937F0580937E05109281051092800547
:104DE0001092830510928205109284051092850519
:104DF00010928605109287051092880510928905F9
:104E000010928A0510928B0510928C0510928D05D8
:104E100010928E0510928F051092910510929005B8
:104E20001092930510929205109294051092960597
:104E30001092950510926F0510926E0510927105F3
:104E400010927005109273051092720570E060E088
:104E50008EE695E00E94311920916E0530916F0524
:104E600081112EC02115310519F0C9010E947F3032
:104E700010926F0510926E051092730510927205D4
:104E800010927105109270058FEF9FEF90936D0552
:104E900080936C051092B3041092B2048CE691E0FA
:104EA0009093B1048093B00487E28093B40480E1CE
:104EB0008093B90482E08093BA041092BB040895F1
:104EC00010927305109272056EEA71E0C9010E949A
:104ED0001E38DACFCF93DF93CDB7DEB7AF970FB6DB
:104EE000F894DEBF0FBECDBF789484B5826084BDD8
:104EF00084B5816084BD85B5826085BD85B58160DE
:104F000085BD80916E00816080936E00109281005B
:104F10008091810082608093810080918100816016
:104F200080938100809180008160809380008091D7
:104F3000B10084608093B1008091B0008160809363
:104F4000B00080917A00846080937A0080917A002A
:104F5000826080937A0080917A00816080937A00E9
:104F600080917A00806880937A001092C100E0916D
:104F7000E103F091E20382E08083E091DD03F091B0
:104F8000DE031082E091DF03F091E0038FEC808379
:104F90001092E903E091E503F091E60386E0808357
:104FA000E091E303F091E403808180618083E091EC
:104FB000E303F091E403808188608083E091E30360
:104FC000F091E403808180688083E091E303F091B5
:104FD000E40380818F7D80830E94D30A84EE92E077
:104FE0000E941C0A8EEF809397059DEE9093980582
:104FF0002AEB2093990580939A0580939B059093C3
:105000009C05ABE3B2E0E1E0F0E09F012F5F3F4F92
:105010004D91EC58FA4F83A1842783A3F9012630E0
:10502000310514F0E1E0F0E022E0AB35B20769F7BA
:105030008091960381112AC010927E0310927D0305
:1050400088EE93E0A0E0B0E080937F03909380032C
:10505000A0938103B09382038EE191E090937C034F
:1050600080937B038AEA91E090938A03809389037B
:1050700010928B0310928C0310928D0310928E036A
:1050800084E08093930381E08093960388E393E028
:105090009093370380933603809135038111ADC01F
:1050A00060E372E080E090E00E94A603DFB6F8942F
:1050B0000DE213E0E1E4EE2EE3E0FE2E80913303F7
:1050C000811125C0F8018491F7019491E82FF0E057
:1050D000EE0FFF1FEE50FD4FA591B4918C919823D8
:1050E00021F461E08AE00E94A50261E08AE00E946A
:1050F000D3028CB580618CBD8CB580648CBD61E0C1
:105100008DE00E94D30261E08BE00E94D302809187
:1051100033038F5F80933303DFBEF8010491E02FE8
:10512000F0E0EE0FFF1FE450FD4F859194919093B6
:10513000320380933103F701E490E092300361E0A1
:105140008AE00E94D3020E94580780E591E00E9405
:10515000630284E38093D00380E80E9424080E94C5
:10516000A20D882309F432C288E00E9424080E941C
:105170008F0D883009F02AC280E10E9424080E9425
:105180008F0D803109F022C280E00E9424080E9425
:105190008F0D182F81111AC241E050E0BE016F5FE0
:1051A0007F4F8FE190E00E941A0C8981833009F0D3
:1051B0000DC280E48093340342E06EE170E0812F01
:1051C0000E94800842E06FE170E0812F0E94800819
:1051D0001F5F143089F740E06EE170E0812F0E947C
:1051E000800840E06FE170E0812F0E9480081F5F1F
:1051F000183089F781E08093350380E591E00E94C3
:10520000630246E050E067E975E089E090E00E94C3
:1052100074078AEA91E09A8389831B821C821D822B
:105220001E8244E050E0BE016D5F7F4F8FE090E052
:105230000E9474070091360310913703D8019296AB
:105240001D921D921D921C929597F80116A217A20D
:1052500010A611A69A961D921D921D921C929D97C2
:1052600080E69AEEA0E0B0E086AB97ABA0AFB1AF1E
:1052700080EA9FE0A0E0B0E082AF93AFA4AFB5AF0B
:10528000D801189686E0FD01282F11922A95E9F79A
:105290009801225F3F4F94E1F90111929A95E9F745
:1052A000E7E9F5E001900D928A95E1F72C5C3F4F1C
:1052B0003BA72AA7D9011C920E9454312FEC37E05A
:1052C00040E050E00E94A235DC01CB010196A11D17
:1052D000B11DF80184839583A683B783808391836E
:1052E000A283B3835801F3E4AF0EB11CC5010E9441
:1052F000EA0C64E470E0C5010E945310882309F4AD
:10530000CEC10E94D9032B013C0148EEC42E43E0DC
:10531000D42EE12CF12C52E0252E912C812CAAA523
:10532000BBA58C918330B9F18111C9C1F801848189
:105330009581A681B7810196A11DB11D84839583B6
:10534000A683B7830E94D903641975098609970952
:10535000A70196010E940B36A90161E0C8010E94D5
:10536000FB1781E0AAA5BBA58C93F1E08F169104F1
:10537000B1F20E94D9036419750986099709D80109
:10538000D6962D913D914D915C91D997261737076F
:105390004807590710F6C5010E94EA0CF8018481FC
:1053A0009581A681B7810196A11DB11D8483958346
:1053B000A683B7830E94D903F801FE9660837183A8
:1053C000828393838A94892809F069C180E591E0FA
:1053D0000E9463020091360310913703B801625FA7
:1053E0007F4FCE0101960E94F81344E050E0BE01C9
:1053F0006D5F7F4F8FE090E00E947407B8016A5E96
:105400007F4FCE0101960E94F81344E050E0BE01A8
:105410006D5F7F4F81E090E00E947407B8016E5E7F
:105420007F4FCE0101960E94F81344E050E0BE0188
:105430006D5F7F4F85E090E00E947407B801625E67
:105440007F4FCE0101960E94F8138B819C81AD8124
:10545000BE8180939A0490939B04A0939C04B09384
:105460009D040E9481037F7380910001909101014E
:1054700068277927709301016093000168EE73E05B
:1054800080E090E00E94A6038AEA91E09A838983F3
:105490001B821C821D821E8280E591E00E946302B5
:1054A00044E050E0BE016D5F7F4F8FE090E00E94CE
:1054B0001A0C0E94D30A83ED92E00E942C056B81A6
:1054C00081ED93E00E948E0A6EE281ED93E00E94EE
:1054D00038046C8181ED93E00E948E0A6EE281EDCA
:1054E00093E00E9438046D8181ED93E00E948E0A62
:1054F0006EE281ED93E00E9438046E8181ED93E0CD
:105500000E948E0A6CEA71E081ED93E00E940D0A20
:105510008BE392E090938105809380050E94D903EC
:10552000DC01CB0188589341A109B109809388051A
:1055300090938905A0938A05B0938B058093840589
:1055400090938505A0938605B093870580938C057D
:1055500090938D05A0938E05B0938F050E94D30A7A
:1055600083E192E00E941C0AE0917E05F0917F05A4
:105570008CE592E09187808780E590E09387828731
:1055800080917E0590917F050E946D09109296058D
:10559000109295050E94D9036B017C0180919505BD
:1055A00090919605019709F455C10E94D9036C1991
:1055B0007D098E099F09603576448105910508F0C3
:1055C00049C184E795E00E94551BE8CF87E38093AB
:1055D000D00380E80E9424080E94A20D882329F1AC
:1055E00088E00E9424080E948F0D8830F1F480E149
:1055F0000E9424080E948F0D182F8031B1F480E0A2
:105600000E9424080E948F0D81110FC041E050E0DC
:10561000BE016F5F7F4F89E390E00E941A0C898181
:10562000843019F410933403E5CD83E38093D003E1
:1056300080E80E9424080E94A20D882371F180E175
:105640000E9424080E948F0D803139F582E10E946A
:1056500024080E948F0D823101F580E00E94240809
:105660000E948F0D811119C084E08093340315E5E9
:1056700019A741E050E0BE01675D7F4F8BE190E0EC
:105680000E94740718A741E050E0BE01685D7F4F9B
:105690008AE190E00E947407ADCD1092D0030E9481
:1056A000D30A87ED92E00E941C0A60E177E280E075
:1056B00090E00E94A603F0E0E0E00995FFCF84307F
:1056C000F9F4F80184819581A681B7810196A11D25
:1056D000B11D84839583A683B7830E94D90364197F
:1056E000750986099709A70196010E940B36A90141
:1056F00063E0C8010E94FB17AAA5BBA52C9235CE7A
:10570000813059F5F80142AD53AD64AD75AD9E01E0
:105710002F5F3F4FC8010E949119382EF2E08F137E
:1057200092C089819A81AB81BC81F8018483958381
:10573000A683B7830E94D90364197509860997095E
:10574000A70196010E940B36A90163E0C8010E94DF
:10575000FB17AAA5BBA53C9208CE823009F005CE66
:10576000F80142AD53AD64AD75AD9E012F5F3F4F63
:10577000C8010E949119382EF5E08F135DC0E3E057
:10578000AAA5BBA5EC93F80182A193A1A4A1B5A100
:10579000892B8A2B8B2B41F424E833E040E050E046
:1057A00022A333A344A355A3F80186A197A1A0A5E2
:1057B000B1A5892B8A2B8B2B61F482A193A1A4A183
:1057C000B5A1B695A7959795879586A397A3A0A70A
:1057D000B1A7F80182A593A5A4A5B5A5892B8A2B0D
:1057E0008B2BA9F482A193A1A4A1B5A1AC01BD0109
:1057F00023E076956795579547952A95D1F7841BB1
:10580000950BA60BB70B82A793A7A4A7B5A7F80182
:1058100086A197A1A0A5B1A586A797A7A0ABB1AB7C
:1058200082A593A5A4A5B5A582AB93ABA4ABB5AB5C
:1058300088248394912C99CDF6E08F1304C0AAA5F7
:10584000BBA51C9292CDBFEF3B128FCDEAA5FBA565
:1058500010828BCD8091950590919605019709F066
:105860008FCE1092A5031092A4031092A30310925E
:10587000A2030E94930585EE93E09093A103809389
:10588000A00386EE93E090939F0380939E03109273
:10589000B5048091BA04823018F098E09093B50472
:1058A0008093B80462E370E080E090E00E94A60379
:1058B0006091BB0480EB94E00E94570668EE73E0B1
:1058C00080E090E00E94A60360E380EB94E00E94F9
:1058D00099090BE416E4C8010197F1F760E380EB46
:1058E00094E00E949909C8010197F1F760E380EB09
:1058F00094E00E94990983E592E00197F1F760E254
:1059000080EB94E00E9499096091B504606240E0E8
:1059100080EB94E00E94B20984E08093B60440E0FA
:105920006CE080EB94E00E94B2090E94FC0952E016
:10593000F52EF092B70440E066E080EB94E00E9420
:10594000B20940E062E080EB94E00E94B2090BE310
:105950001FE1C8010197F1F788E08093BB0460E084
:1059600080EB94E00E9457060E94FC0940E062E050
:1059700080EB94E00E94B209C8010197F1F760E062
:1059800080E00E94C90968E672E080EB94E00E9422
:10599000E50A68EE73E080E090E00E94A6030E94B2
:1059A000FC0960E080E00E94C90968E772E080EBD2
:1059B00094E00E94E50A61E080E00E94C9096BE77B
:1059C00072E080EB94E00E94E50A61E083E00E94CF
:1059D000D30260E08FE00E94D30261E085E00E9484
:1059E000D30261E084E00E94D30260E08EE00E9476
:1059F000D302E091E103F091E203F082E091DD0354
:105A0000F091DE031082E091DF03F091E00387E67E
:105A100080831092E903E091E503F091E60386E0CC
:105A20008083E091E303F091E403808180618083CF
:105A3000E091E303F091E403808188608083E0914A
:105A4000E303F091E403808180688083E091E303C5
:105A5000F091E40380818F7D808380916C0590912B
:105A60006D0597FF22C00E94D903ECEBF4E050E0F3
:105A700040E026E1249FD001259FB00D11248D0127
:105A800004541B4FD801322F1D923A95E9F76083D9
:105A90007183828393834F5F5F4F769648305105C1
:105AA00049F710926D0510926C0580916C059091EC
:105AB0006D050897CCF5ECEBF4E090E080E02481F4
:105AC0003581232B09F00BC226813781232B09F066
:105AD00006C226E1289F8001299F100D112404543D
