:1000000006308A00692E0000C3376E37E531F434BC
:100010006F3700006539F237F2100001D4326D38C5
:100020003A005039E5393A006630840083130008FD
:10003000031927280230F800F701F70B1D28F80BE9
:100040001C289730F700F70B2328800B1A2808008C
:100050006D182C2888112D28881583168811831275
:10006000ED18342808123528081683160812831252
:100070006D193C2888123D28881683168812831231
:10008000ED194428081345280817831608130000A3
:1000900083120815831608114D284E288312081163
:1000A0008316081183120800EE01831688150030AC
:1000B000831288190130EE0483160816003083126B
:1000C000081A0130F7000310F70D7708EE048316C5
:1000D000881600308312881A0130F700F70DF70DEB
:1000E000FC30F7057708EE048316081700308312FA
:1000F000081B0130F700F70DF70DF70DF830F70585
:100100007708EE046E08F80008008316081108103E
:100110008810831208108316081088150816881690
:10012000081783128814831688100000831208159C
:10013000831608110000831254207808ED0008117E
:100140008316081100008312081583160811A828C9
:10015000831254207808EC000811831608118811C6
:1001600008128812081383126D0EF700F030F7059D
:1001700077086C04F8007808EC00EC1FC12883169F
:100180008D28EA08031DC6280810C72808148316FE
:100190000810000083128810831688100000831254
:1001A00008118316081183126B0EEC000F30EC055A
:1001B0006C08ED0028206B080F39EC00ED002820BA
:1001C00008002830CE000C30CF000130D0000630BF
:1001D000D100081183160811831208108316081025
:1001E0008312881083168810881108128812081349
:1001F0000811081088100F308312E6001420013017
:10020000CD004D08033C031C0D290330ED002820D0
:100210000530E6001420CD0A01290230ED00282027
:100220000530E6001420CD014D08033C031C2429B1
:100230004E304D07840083130008D200EA015208B3
:10024000EB008520CD0A14298A110A128F2E670B24
:100250002A292D294030E8002E29E80101306602C4
:10026000E80768088038E900EA016908EB008520A2
:1002700008006508073A031947290B3A03194C2966
:10028000063A03195429023A03195A295F29013001
:10029000E600E70027216429EA010130EB00852010
:1002A0000230E600142064290130E6000230E70045
:1002B00027216429EA011030EB00852064290130F0
:1002C000EA006508EB008520080094138C115B0898
:1002D00093000230941B73298C1D6C290030831607
:1002E000111B01308312F8000800141383169115B6
:1002F0009119782977189112771C91161116111AF5
:100300007F2983121308F8000800831611141118AE
:100310008729EC308312DB0065215208DB00652160
:100320008316911491189229ED308312DB00652118
:10033000F70175217808D3008316111511199E292C
:1003400083125308F8000800831611141118A62907
:10035000EC308312DB0065215908DB0065215A0867
:10036000DB006521831611151119B42983120800C9
:10037000831611141118BA29EC308312DB006521A1
:100380005208DB006521831691149118C529ED30C0
:100390008312DB0065210130F70075217808D30056
:1003A000F70175217808D400831611151119D62983
:1003B00083125308F8005408F9000800D030D20026
:1003C00085217808583C0319E8290030F800822A72
:1003D000E030D900B630DA00A4216430E600142001
:1003E000F330D200852178080139013C031DFC2936
:1003F0006430E6001420F0298830D200B821790852
:10040000AE007808AD008A30D200B8217908B0007B
:100410007808AF008C30D200B8217908B200780893
:10042000B1008E30D200B8217908B4007808B3004A
:100430009030D200B8217908B6007808B500923023
:10044000D200B8217908B8007808B7009430D200FB
:10045000B8217908BA007808B9009630D200B821DE
:100460007908BC007808BB009830D200B821790820
:10047000BE007808BD009A30D200B8217908C000CB
:100480007808BF009C30D200B8217908C2007808F3
:10049000C1009E30D200B8217908C4007808C3009A
:1004A0004D08D2004E08D3004F08D4005008D500A4
:1004B0005108D600560ED900D90DE030D905550D9A
:1004C000F700F70DFC30F70577085904FC39D80020
:1004D000530ED900D90DE030D905540DF700F70DB2
:1004E000FC30F705770859045204D700F530D900DD
:1004F0005808DA00A421F430D9005708DA00A42102
:100500000130F8008A110A129A2E0B08CD008B13C5
:10051000831603178C170C140000000083120313BA
:10052000CD1B8B1703170C087F390319D92A031326
:10053000CD0003170D080313CE0003170F08031394
:10054000CF004D08E50039214E0803178D00031335
:100550004F0803178F0003130B08D0008B1383166B
:1005600003178C170C140000000083120313D01B18
:100570008B1703170C0D0E0D7F390319D92A03139E
:10058000CD0003170D080313CE0003170F08031344
:10059000CF004D08E50039214E0803178D000313E5
:1005A0004F0803178F008D0A03198F0A0313852A3A
:1005B0000317031308008318E02A6B3084008313A9
:1005C00066086A068039F000E61FF12AE309E409AB
:1005D000E509E609E30A0319E40A0319E50A031920
:1005E000E60AEA1FFE2AE709E809E909EA09E70A33
:1005F0000319E80A0319E90A0319EA0AF701F801DD
:10060000F901FA01EB01EC01ED01EE016A08690460
:100610006804670403193C2B2030EF000310E30D3E
:10062000E40DE50DE60DEB0DEC0DED0DEE0D6A089C
:100630006E02031D252B69086D02031D252B68081A
:100640006C02031D252B67086B02031C362B670801
:10065000EB026808031C680FEC026908031C690FB1
:10066000ED026A08031C6A0FEE020314F70DF80D81
:10067000F90DFA0DEF0B0E2BF01F492BF709F809B6
:10068000F909FA09F70A0319F80A0319F90A03190B
:10069000FA0A6B088000840A6C088000840A6D08DE
:1006A0008000840A6E08800008002030F300EF010B
:1006B000F001F101F2016A08FA006908F90068081E
:1006C000F8006708F7000310771C742B6B08EF071E
:1006D0006C0803186C0FF0076D0803186D0FF10715
:1006E0006E0803186E0FF207F20CF10CF00CEF0C11
:1006F000FA0CF90CF80CF70CF30B632B0800DA0179
:10070000831611141118822BEC308312DB00652143
:10071000F730DB0065218316911491188D2BED3095
:100720008312DB0065210130F70075217808D900BC
:100730000130F70075217808D8000130F7007521E5
:100740007808D7005A0CDF00590CDE00580CDD0089
:10075000570CDC00DF0CDE0CDD0CDC0CDF0CDE0CDF
:10076000DD0CDC0CDF0CDE0CDD0CDC0C0F30DF05EF
:100770005E080F39F900FA017A08A8007908A70085
:100780005D08A6005C08A5000130F7007521780817
:10079000D9000130F70075217808D800F7017521DC
:1007A0007808D700831611151119D42B83125A0C0F
:1007B000DF00590CDE00580CDD00570CDC00DF0CAC
:1007C000DE0CDD0CDC0CDF0CDE0CDD0CDC0CDF0CDD
:1007D000DE0CDD0CDC0C0F30DF055E080F39F90094
:1007E000FA017A08A4007908A3005D08A2005C0859
:1007F000A10083102408E6002308E5002208E40095
:100800002108E300EA01E901E8010830E700DB2202
:100810007A08DA007908D9007808D8007708D70074
:10082000DE01DD012E08DC002D08DB005E08EA0099
:100830005D08E9002E08E8002D08E700EE01ED0153
:10084000EC010230EB0055237708D7027808031C2F
:10085000780FD8027908031C790FD9027A08031C93
:100860007A0FDA022F08F7003008F800F901FA01D0
:10087000B01F3C2CF903FA037A08DE007908DD008A
:100880007808DC007708DB005A08EA005908E9001C
:100890005808E8005708E7007A08EE007908ED00EC
:1008A0007808EC007708EB0055237A08DA0079081D
:1008B000D9007808D8007708D70083107A08E600B6
:1008C0007908E5007808E4007708E300EA01E90127
:1008D0000830E800E701DB227A08D2007908D1006D
:1008E0007808D0007708CF0083102408E60023089A
:1008F000E5002208E4002108E300EA01E901E8013B
:100900001030E700DB227A08DA007908D90078088D
:10091000D8007708D7002D08F7002E08F800F90155
:10092000FA012D08D7022E08031C2E0FD8027908D1
:10093000031C790FD9027A08031C7A0FDA0283109C
:100940002408E6002308E5002208E4002108E3006B
:10095000EA01E901E8011030E700DB227A08DE0055
:100960007908DD007808DC007708DB002E08F80045
:10097000F901FA012D085B02F7002E08031C2E0F67
:10098000C32C5C08C42C5C02F8007908031C790FA6
:10099000CB2C5D08CC2C5D02F9007A08031C7A0F81
:1009A000D32C5E08D42C5E02FA00DE007908DD004C
:1009B0007808DC007708DB005A08EA005908E900EB
:1009C0005808E8005708E7005E08EE007908ED00D7
:1009D0007808EC007708EB0055237A08DA007908EC
:1009E000D9007808D8007708D70083107A08E60085
:1009F0007908E5007808E4007708E300EA01E901F6
:100A00001030E800E701DB227A08DA007908D90023
:100A10007808D8007708D7003108F7003208F800C6
:100A2000F901FA01B21F162DF903FA037A08DE0064
:100A30007908DD007808DC007708DB005A08EA0056
:100A40005908E9005808E8005708E7007A08EE005E
:100A50007908ED007808EC007708EB0055237A0858
:100A6000DA007908D9007808D8007708D700831011
:100A70007A08E6007908E5007808E4007708E300E2
:100A8000EA01E9014030E800E701DB227A08D600FC
:100A90007908D5007808D4007708D30053084F07A9
:100AA000A9005008AA0054080318540FAA075108B7
:100AB000AB0055080318550FAB075208AC00560899
:100AC0000318560FAC074E08FA004D088400831334
:100AD0004E188317DA010408D9005A10831B5A14E0
:100AE0002C08EA002B08E9002A08E8002908E7009A
:100AF000EE01ED01EC010530EB00552359088400AF
:100B000083135A1883177A08DE007908DD00780805
:100B1000DC007708DB008030DB0700300318013091
:100B2000DC07003003180130DD0700300318013006
:100B3000DE07E0010408DF006010831B60148310EF
:100B40005E08E6005D08E5005C08E4005B08E30081
:100B5000EA01E9010130E800E701DB225F088400D7
:100B600083136018831777088000840A7808800050
:100B7000840A79088000840A7A0880000130F8002D
:100B80008A110A12D02E8318C82D6D308400831369
:100B9000F701F801F901FA01ED01EE01EF01F001B1
:100BA0006C086B046A0469040319062E2030F100F6
:100BB0000310E50DE60DE70DE80DED0DEE0DEF0D63
:100BC000F00D6C087002031DEF2D6B086F02031D02
:100BD000EF2D6A086E02031DEF2D69086D02031CDC
:100BE000002E6908ED026A08031C6A0FEE026B080A
:100BF000031C6B0FEF026C08031C6C0FF002031454
:100C0000F70DF80DF90DFA0DF10BD82D6D088000D8
:100C1000840A6E088000840A6F088000840A7008C5
:100C2000800008000408DD003B30E4009A30E30057
:100C3000CA30E200E1010A30DF0083145930840039
:100C400083135C08E8005B08E7005A08E6005908CF
:100C5000E5006408EC006308EB006208EA00610844
:100C6000E900C3257808F708031D492E5F08013AFB
:100C70000319492E5D0803194A2E0F395F02031923
:100C8000432E03184F2EDD1B4F2E5D1B4A2E2030A6
:100C90004B2EDD013030F7077708E500392183104E
:100CA0006408E8006308E7006208E6006108E50000
:100CB000EC01EB01EA010A30E900C3257A08E400FF
:100CC0007908E3007808E2007708E100DF0B1D2EC9
:100CD000080003081F398300FF30A000A01520087A
:100CE000831687008312201620088316870004309D
:100CF00093002830831294008316941314131F1446
:100D00009F141F159F1107309C008313043083121A
:100D1000CD00FA30E6001420CD0B892EE1280C30EE
:100D2000E50039210330CD000130CE00CF00D001E5
:100D3000D101DE29F808031DB52E0130E600E700D9
:100D40002721043003178D0000308F000313852204
:100D50000130E6000230E70027210A3003178D003A
:100D600000308F0003138522B42E0130E600E70027
:100D700027210E3003178D0000308F0003138522CA
:100D80000130E6000230E7002721113003178D0003
:100D900000308F0003138522CE014530CD007F2B1C
:100DA000CE014930CD008A1500288A110630E600B0
:100DB0000130E7002721C81F052F2D30E50039211C
:100DC0004508F7004608F8004708F9004808FA0007
:100DD000C81FFC2E4508003CF700F8014608031C1C
:100DE000460FF802F9014708031C470FF902FA0100
:100DF0004808031C480FFA027A08C8007908C7009F
:100E00007808C6007708C500082F2030E500392192
:100E100083104808E6004708E5004608E400450856
:100E2000E300EA01E901E8016430E700DB227A0827
:100E3000D0007908CF007808CE007708CD00831461
:100E40005130840083134808E6004708E50046084F
:100E5000E4004508E300EA01E901E8016430E70045
:100E6000DB225408D8005308D7005208D600510896
:100E7000D500423084005008DC004F08DB004E08EB
:100E8000DA004D08D90012262E30E5003921423013
:100E900084005808DC005708DB005608DA005508C3
:100EA000D9001226DF30E50039214330E500392131
:100EB0000730E6000230E700272183104C08E800E5
:100EC0004B08E7004A08E6004908E500EC01EB01A1
:100ED000EA016430E900C3257A08D0007908CF0020
:100EE0007808CE007708CD00831451308400831336
:100EF0004C08E8004B08E7004A08E6004908E5000E
:100F0000EC01EB01EA016430E900C3255408D80084
:100F10005308D7005208D6005108D5004430840049
:100F20005008DC004F08DB004E08DA004D08D900FD
:100F300012262E30E5003921423084005808DC00AA
:100F40005708DB005608DA005508D9001226683029
:100F5000E50039215030E50039216130E5003921C3
:100F60000830CD00FA30E6001420CD0BB22FCC2E85
:020F700063001C
:1010000083102C08E6002B08E5002A08E4002908D4
:10101000E300EA01E901E8010230E7008A11DB227E
:101020008A157A08DE007908DD007808DC00770888
:10103000DB0000305B02CF005C08D000FA30031CFC
:10104000FB30D0025D08D1000030031C0130D1021A
:101050005E08D2000030031C0130D2028310520817
:10106000E6005108E5005008E4004F08E300EA01FB
:10107000E901E8010430E7008A11DB228A157A08C9
:10108000DE007908DD007808DC007708DB008310DB
:101090005208E6005108E5005008E4004F08E3005C
:1010A000EA01E901E8010430E7008A11DB228A1530
:1010B0007A08E2007908E1007808E0007708DF00AC
:1010C0005E08EA005D08E9005C08E8005B08E700EC
:1010D0006208EE006108ED006008EC005F08EB00BC
:1010E0008A1155238A157A08DE007908DD00780810
:1010F000DC007708DB0083105E08E6005D08E50091
:101100005C08E4005B08E300EA01E9010830E8005C
:10111000E7018A11DB228A157A08DE007908DD00F2
:101120007808DC007708DB003D08F7003E08F8008F
:10113000F901FA01BE1F9E28F903FA037A08E200BA
:101140007908E1007808E0007708DF005E08EA002F
:101150005D08E9005C08E8005B08E7006208EE0053
:101160006108ED006008EC005F08EB008A11552370
:101170008A157A08D6007908D5007808D40077084F
:10118000D3003B08F7003C08F800F901FA01BC1F46
:10119000CB28F903FA037A08DE007908DD00780825
:1011A000DC007708DB005208EA005108E90050082B
:1011B000E8004F08E7005E08EE005D08ED005C08FF
:1011C000EC005B08EB008A1155238A157A08DE00D3
:1011D0007908DD007808DC007708DB005E08EA00AB
:1011E0005D08E9005C08E8005B08E700EE01ED013E
:1011F000EC010230EB008A1155238A157708D307DA
:1012000078080318780FD40779080318790FD507E1
:101210007A0803187A0FD60783105608E600550897
:10122000E5005408E4005308E300EA01E901E8019D
:101230000430E7008A11DB228A157A08DE0079087B
:10124000DD007808DC007708DB00E201E1013A0804
:10125000E0003908DF00E01F2F29E103E203620804
:10126000EA006108E9006008E8005F08E700EE01B5
:101270000130ED00EC01EB018A1155238A15770846
:101280005B07D3005C08D40078080318780FD407F4
:101290005D08D50079080318790FD5075E08D600D8
:1012A0007A0803187A0FD607DE01DD013808DC0062
:1012B0003708DB00DC1F5E29DD03DE0383105208E4
:1012C000E6005108E5005008E4004F08E300EA0199
:1012D000E901E8010430E7008A11DB228A157A0867
:1012E000E2007908E1007808E0007708DF00831069
:1012F0005208E6005108E5005008E4004F08E300FA
:10130000EA01E901E8010430E7008A11DB228A15CD
:101310007A08E6007908E5007808E4007708E30039
:101320006208EA006108E9006008E8005F08E70079
:101330006608EE006508ED006408EC006308EB0049
:101340008A1155238A157A08E2007908E1007808A5
:10135000E0007708DF0083106208E6006108E5001E
:101360006008E4005F08E300EA01E9012030E800DA
:10137000E7018A11DB228A157A08E2007908E10088
:101380007808E0007708DF005E08EA005D08E90001
:101390005C08E8005B08E7006208EE006108ED0009
:1013A0006008EC005F08EB008A1155238A157A0863
:1013B000DE007908DD007808DC007708DB008310A8
:1013C0005E08E6005D08E5005C08E4005B08E300F9
:1013D000EA01E901E8010830E7008A11DB228A15F9
:1013E0007A08DE007908DD007808DC007708DB0089
:1013F000E201E1013608E0003508DF00E01F022AC3
:10140000E103E2036208EA006108E9006008E8001D
:101410005F08E7005208EE005108ED005008EC00AC
:101420004F08EB008A1155238A157A08E2007908E3
:10143000E1007808E0007708DF0083106208E6002A
:101440006108E5006008E4005F08E300EA01E901E3
:10145000E8010230E7008A11DB228A157708DB07F2
:1014600078080318780FDC0779080318790FDD076F
:101470007A0803187A0FDE0783105E08E6005D081D
:10148000E5005C08E4005B08E300EA010430E900E1
:10149000E801E7018A11DB228A157A08D20079086F
:1014A000D1007808D0007708CF004F08DB008030EB
:1014B0005007DC005108DD00003003180130DD0763
:1014C0005208DE00003003180130DE073308F70051
:1014D0003408F800F901FA017A08E2007908E1001D
:1014E0003408E0003308DF005E08EA005D08E90028
:1014F0005C08E8005B08E7006208EE006108ED00A8
:101500006008EC005F08EB008A1155238A157A0801
:10151000DE007908DD007808DC007708DB00831046
:101520005E08E6005D08E5005C08E4005B08E30097
:10153000EA01E9018030E800E7018A11DB228A151F
:101540007A08D2007908D1007808D0007708CF0057
:10155000CF08031DB72AD008031DB72AD108031DE1
:10156000B72AD208031DB72A0030F800B52C250889
:10157000003CF700F8012608031C260FF802103083
:10158000F9002708031C270FF902FA012808031C99
:10159000280FFA027A08DE007908DD007808DC00FE
:1015A0007708DB0083105608E6005508E50054086C
:1015B000E4005308E300EA01E9011030E800E70124
:1015C0008A11DB228A157708DB027808031C780F62
:1015D000DC027908031C790FDD027A08031C7A0FFC
:1015E000DE025E08EA005D08E9005C08E8005B08CE
:1015F000E700EE01ED010C30EC003530EB008A1114
:1016000055238A157A08DA007908D9007808D800B5
:101610007708D7005A087F3C031C342B0310570D62
:10162000DB00580DDC00590DDD005A0DDE00831083
:101630005E08E8005D08E7005C08E6005B08E5007E
:101640005208EC005108EB005008EA004F08E9008E
:101650008A11C3258A157A08DA007908D900780832
:10166000D8007708D700592B83105A08E80059088A
:10167000E7005808E6005708E5005208EC0051085A
:10168000EB005008EA004F08E9008A11C3258A15CB
:101690007A08DE007908DD007808DC007708DB00D6
:1016A00003105B0DD7005C0DD8005D0DD9005E0DF9
:1016B000DA00DE01DD014408DC004308DB00DC1F4A
:1016C000632BDD03DE035A0CE200590CE100580CD9
:1016D000E000570CDF00E20CE10CE00CDF0CE20C48
:1016E000E10CE00CDF0C1F30E2055A0CFA00590C3B
:1016F000F900580CF800570CF700FA0CF90CF80C2C
:10170000F70CFA0CF90CF80CF70C1F30FA057A08F4
:10171000E6007908E5007808E4007708E30062084D
:10172000EA006108E9006008E8005F08E700660871
:10173000EE006508ED006408EC006308EB008A1118
:1017400055238A157A08E2007908E1007808E0005C
:101750007708DF00FA01620CF900610CF800600CF8
:10176000F700F90CF80CF70CF90CF80CF70CF90C65
:10177000F80CF70CF90CF80CF70C0730F9055E08BB
:10178000EA005D08E9005C08E8005B08E7007A0809
:10179000EE007908ED007808EC007708EB008A117C
:1017A00055238A157A08DE007908DD007808DC0008
:1017B0007708DB0083105E08E6005D08E5005C0842
:1017C000E4005B08E300EA01E9011030E800E7010A
:1017D0008A11DB228A157A08D2007908D1007808AC
:1017E000D0007708CF005A0CFA00590CF900580CB9
:1017F000F800570CF700FA0CF90CF80CF70C3F3016
:10180000FA057A08DE007908DD007808DC00770840
:10181000DB004108F7004208F800F901FA01C21F95
:10182000132CF903FA037A08E2007908E10078083A
:10183000E0007708DF005E08EA005D08E9005C0868
:10184000E8005B08E7006208EE006108ED00600850
:10185000EC005F08EB008A1155238A157A08DE0038
:101860007908DD007808DC007708DB0083105E086B
:10187000E6005D08E5005C08E4005B08E300EA01BF
:10188000E9012030E800E7018A11DB228A157A0895
:10189000D6007908D5007808D4007708D30053081B
:1018A0004F07DB005008DC0054080318540FDC0716
:1018B0005108DD0055080318550FDD075208DE00FA
:1018C00056080318560FDE073F08F7004008F800D7
:1018D000F901FA01C01F6E2CF903FA037708DB0740
:1018E00078080318780FDC0779080318790FDD07EB
:1018F0007A0803187A0FDE0783105E08E6005D0899
:10190000E5005C08E4005B08E300EA01E901E801A6
:101910001030E7008A11DB228A155708F7075808AC
:101920000318580FF80759080318590FF9075A08F0
:1019300003185A0FFA077A08DA007908D9007808EC
:10194000D8007708D7004D08840083134E188317FA
:1019500057088000840A58088000840A59088000CB
:10196000840A5A0880000130F8008A110A12D52E24
:02400E00723FFF
:00000001FF
;PIC16F877A
;CRC=46F6  CREATED="11-Dec-22 13:12"
